{
  "address": "0x3d017B78C05C390D7DfcdFCf594C49d854301574",
  "abi": [
    {
      "inputs": [
        {
          "internalType": "contract IProjects",
          "name": "_projects",
          "type": "address"
        },
        {
          "internalType": "contract IFundingCycles",
          "name": "_fundingCycles",
          "type": "address"
        },
        {
          "internalType": "contract ITicketBooth",
          "name": "_ticketBooth",
          "type": "address"
        },
        {
          "internalType": "contract IOperatorStore",
          "name": "_operatorStore",
          "type": "address"
        },
        {
          "internalType": "contract IModStore",
          "name": "_modStore",
          "type": "address"
        },
        {
          "internalType": "contract IPrices",
          "name": "_prices",
          "type": "address"
        },
        {
          "internalType": "contract ITerminalDirectory",
          "name": "_terminalDirectory",
          "type": "address"
        },
        {
          "internalType": "address",
          "name": "_owner",
          "type": "address"
        }
      ],
      "stateMutability": "nonpayable",
      "type": "constructor"
    },
    {
      "inputs": [
        {
          "internalType": "uint256",
          "name": "prod1",
          "type": "uint256"
        }
      ],
      "name": "PRBMath__MulDivFixedPointOverflow",
      "type": "error"
    },
    {
      "inputs": [
        {
          "internalType": "uint256",
          "name": "prod1",
          "type": "uint256"
        },
        {
          "internalType": "uint256",
          "name": "denominator",
          "type": "uint256"
        }
      ],
      "name": "PRBMath__MulDivOverflow",
      "type": "error"
    },
    {
      "anonymous": false,
      "inputs": [
        {
          "indexed": true,
          "internalType": "uint256",
          "name": "projectId",
          "type": "uint256"
        },
        {
          "indexed": false,
          "internalType": "uint256",
          "name": "value",
          "type": "uint256"
        },
        {
          "indexed": false,
          "internalType": "address",
          "name": "caller",
          "type": "address"
        }
      ],
      "name": "AddToBalance",
      "type": "event"
    },
    {
      "anonymous": false,
      "inputs": [
        {
          "indexed": false,
          "internalType": "contract ITerminal",
          "name": "allowed",
          "type": "address"
        }
      ],
      "name": "AllowMigration",
      "type": "event"
    },
    {
      "anonymous": false,
      "inputs": [
        {
          "indexed": true,
          "internalType": "uint256",
          "name": "fundingCycleId",
          "type": "uint256"
        },
        {
          "indexed": true,
          "internalType": "uint256",
          "name": "projectId",
          "type": "uint256"
        },
        {
          "indexed": false,
          "internalType": "address",
          "name": "caller",
          "type": "address"
        }
      ],
      "name": "Configure",
      "type": "event"
    },
    {
      "anonymous": false,
      "inputs": [
        {
          "indexed": false,
          "internalType": "uint256",
          "name": "amount",
          "type": "uint256"
        }
      ],
      "name": "Deposit",
      "type": "event"
    },
    {
      "anonymous": false,
      "inputs": [
        {
          "indexed": true,
          "internalType": "uint256",
          "name": "fundingCycleId",
          "type": "uint256"
        },
        {
          "indexed": true,
          "internalType": "uint256",
          "name": "projectId",
          "type": "uint256"
        },
        {
          "components": [
            {
              "internalType": "bool",
              "name": "preferUnstaked",
              "type": "bool"
            },
            {
              "internalType": "uint16",
              "name": "percent",
              "type": "uint16"
            },
            {
              "internalType": "uint48",
              "name": "lockedUntil",
              "type": "uint48"
            },
            {
              "internalType": "address payable",
              "name": "beneficiary",
              "type": "address"
            },
            {
              "internalType": "contract IModAllocator",
              "name": "allocator",
              "type": "address"
            },
            {
              "internalType": "uint56",
              "name": "projectId",
              "type": "uint56"
            }
          ],
          "indexed": false,
          "internalType": "struct PayoutMod",
          "name": "mod",
          "type": "tuple"
        },
        {
          "indexed": false,
          "internalType": "uint256",
          "name": "modCut",
          "type": "uint256"
        },
        {
          "indexed": false,
          "internalType": "address",
          "name": "caller",
          "type": "address"
        }
      ],
      "name": "DistributeToPayoutMod",
      "type": "event"
    },
    {
      "anonymous": false,
      "inputs": [
        {
          "indexed": true,
          "internalType": "uint256",
          "name": "fundingCycleId",
          "type": "uint256"
        },
        {
          "indexed": true,
          "internalType": "uint256",
          "name": "projectId",
          "type": "uint256"
        },
        {
          "components": [
            {
              "internalType": "bool",
              "name": "preferUnstaked",
              "type": "bool"
            },
            {
              "internalType": "uint16",
              "name": "percent",
              "type": "uint16"
            },
            {
              "internalType": "uint48",
              "name": "lockedUntil",
              "type": "uint48"
            },
            {
              "internalType": "address payable",
              "name": "beneficiary",
              "type": "address"
            }
          ],
          "indexed": false,
          "internalType": "struct TicketMod",
          "name": "mod",
          "type": "tuple"
        },
        {
          "indexed": false,
          "internalType": "uint256",
          "name": "modCut",
          "type": "uint256"
        },
        {
          "indexed": false,
          "internalType": "address",
          "name": "caller",
          "type": "address"
        }
      ],
      "name": "DistributeToTicketMod",
      "type": "event"
    },
    {
      "anonymous": false,
      "inputs": [
        {
          "indexed": false,
          "internalType": "uint256",
          "name": "target",
          "type": "uint256"
        }
      ],
      "name": "EnsureTargetLocalWei",
      "type": "event"
    },
    {
      "anonymous": false,
      "inputs": [
        {
          "indexed": true,
          "internalType": "uint256",
          "name": "projectId",
          "type": "uint256"
        },
        {
          "indexed": true,
          "internalType": "contract ITerminal",
          "name": "to",
          "type": "address"
        },
        {
          "indexed": false,
          "internalType": "uint256",
          "name": "_amount",
          "type": "uint256"
        },
        {
          "indexed": false,
          "internalType": "address",
          "name": "caller",
          "type": "address"
        }
      ],
      "name": "Migrate",
      "type": "event"
    },
    {
      "anonymous": false,
      "inputs": [
        {
          "indexed": true,
          "internalType": "address",
          "name": "previousOwner",
          "type": "address"
        },
        {
          "indexed": true,
          "internalType": "address",
          "name": "newOwner",
          "type": "address"
        }
      ],
      "name": "OwnershipTransferred",
      "type": "event"
    },
    {
      "anonymous": false,
      "inputs": [
        {
          "indexed": true,
          "internalType": "uint256",
          "name": "fundingCycleId",
          "type": "uint256"
        },
        {
          "indexed": true,
          "internalType": "uint256",
          "name": "projectId",
          "type": "uint256"
        },
        {
          "indexed": true,
          "internalType": "address",
          "name": "beneficiary",
          "type": "address"
        },
        {
          "indexed": false,
          "internalType": "uint256",
          "name": "amount",
          "type": "uint256"
        },
        {
          "indexed": false,
          "internalType": "uint256",
          "name": "beneficiaryTokens",
          "type": "uint256"
        },
        {
          "indexed": false,
          "internalType": "uint256",
          "name": "totalTokens",
          "type": "uint256"
        },
        {
          "indexed": false,
          "internalType": "string",
          "name": "note",
          "type": "string"
        },
        {
          "indexed": false,
          "internalType": "address",
          "name": "caller",
          "type": "address"
        }
      ],
      "name": "Pay",
      "type": "event"
    },
    {
      "anonymous": false,
      "inputs": [
        {
          "indexed": true,
          "internalType": "uint256",
          "name": "fundingCycleId",
          "type": "uint256"
        },
        {
          "indexed": true,
          "internalType": "uint256",
          "name": "projectId",
          "type": "uint256"
        },
        {
          "indexed": true,
          "internalType": "address",
          "name": "beneficiary",
          "type": "address"
        },
        {
          "indexed": false,
          "internalType": "uint256",
          "name": "count",
          "type": "uint256"
        },
        {
          "indexed": false,
          "internalType": "uint256",
          "name": "beneficiaryTicketAmount",
          "type": "uint256"
        },
        {
          "indexed": false,
          "internalType": "address",
          "name": "caller",
          "type": "address"
        }
      ],
      "name": "PrintReserveTickets",
      "type": "event"
    },
    {
      "anonymous": false,
      "inputs": [
        {
          "indexed": true,
          "internalType": "uint256",
          "name": "projectId",
          "type": "uint256"
        },
        {
          "indexed": true,
          "internalType": "address",
          "name": "beneficiary",
          "type": "address"
        },
        {
          "indexed": false,
          "internalType": "uint256",
          "name": "amount",
          "type": "uint256"
        },
        {
          "indexed": false,
          "internalType": "string",
          "name": "memo",
          "type": "string"
        },
        {
          "indexed": false,
          "internalType": "address",
          "name": "caller",
          "type": "address"
        }
      ],
      "name": "PrintTickets",
      "type": "event"
    },
    {
      "anonymous": false,
      "inputs": [
        {
          "indexed": true,
          "internalType": "address",
          "name": "holder",
          "type": "address"
        },
        {
          "indexed": true,
          "internalType": "address",
          "name": "beneficiary",
          "type": "address"
        },
        {
          "indexed": true,
          "internalType": "uint256",
          "name": "_projectId",
          "type": "uint256"
        },
        {
          "indexed": false,
          "internalType": "uint256",
          "name": "amount",
          "type": "uint256"
        },
        {
          "indexed": false,
          "internalType": "uint256",
          "name": "returnAmount",
          "type": "uint256"
        },
        {
          "indexed": false,
          "internalType": "address",
          "name": "caller",
          "type": "address"
        }
      ],
      "name": "Redeem",
      "type": "event"
    },
    {
      "anonymous": false,
      "inputs": [
        {
          "indexed": false,
          "internalType": "uint256",
          "name": "_amount",
          "type": "uint256"
        }
      ],
      "name": "SetFee",
      "type": "event"
    },
    {
      "anonymous": false,
      "inputs": [
        {
          "indexed": false,
          "internalType": "uint256",
          "name": "amount",
          "type": "uint256"
        }
      ],
      "name": "SetTargetLocalWei",
      "type": "event"
    },
    {
      "anonymous": false,
      "inputs": [
        {
          "indexed": false,
          "internalType": "contract IYielder",
          "name": "newYielder",
          "type": "address"
        }
      ],
      "name": "SetYielder",
      "type": "event"
    },
    {
      "anonymous": false,
      "inputs": [
        {
          "indexed": true,
          "internalType": "uint256",
          "name": "fundingCycleId",
          "type": "uint256"
        },
        {
          "indexed": true,
          "internalType": "uint256",
          "name": "projectId",
          "type": "uint256"
        },
        {
          "indexed": true,
          "internalType": "address",
          "name": "beneficiary",
          "type": "address"
        },
        {
          "indexed": false,
          "internalType": "uint256",
          "name": "amount",
          "type": "uint256"
        },
        {
          "indexed": false,
          "internalType": "uint256",
          "name": "currency",
          "type": "uint256"
        },
        {
          "indexed": false,
          "internalType": "uint256",
          "name": "netTransferAmount",
          "type": "uint256"
        },
        {
          "indexed": false,
          "internalType": "uint256",
          "name": "beneficiaryTransferAmount",
          "type": "uint256"
        },
        {
          "indexed": false,
          "internalType": "uint256",
          "name": "govFeeAmount",
          "type": "uint256"
        },
        {
          "indexed": false,
          "internalType": "address",
          "name": "caller",
          "type": "address"
        }
      ],
      "name": "Tap",
      "type": "event"
    },
    {
      "inputs": [
        {
          "internalType": "uint256",
          "name": "_projectId",
          "type": "uint256"
        }
      ],
      "name": "addToBalance",
      "outputs": [],
      "stateMutability": "payable",
      "type": "function"
    },
    {
      "inputs": [
        {
          "internalType": "contract ITerminal",
          "name": "_contract",
          "type": "address"
        }
      ],
      "name": "allowMigration",
      "outputs": [],
      "stateMutability": "nonpayable",
      "type": "function"
    },
    {
      "inputs": [
        {
          "internalType": "uint256",
          "name": "",
          "type": "uint256"
        }
      ],
      "name": "balanceOf",
      "outputs": [
        {
          "internalType": "uint256",
          "name": "",
          "type": "uint256"
        }
      ],
      "stateMutability": "view",
      "type": "function"
    },
    {
      "inputs": [
        {
          "internalType": "address",
          "name": "_account",
          "type": "address"
        },
        {
          "internalType": "uint256",
          "name": "_projectId",
          "type": "uint256"
        },
        {
          "internalType": "uint256",
          "name": "_count",
          "type": "uint256"
        }
      ],
      "name": "claimableOverflowOf",
      "outputs": [
        {
          "internalType": "uint256",
          "name": "_claimableOverflow",
          "type": "uint256"
        }
      ],
      "stateMutability": "view",
      "type": "function"
    },
    {
      "inputs": [
        {
          "internalType": "uint256",
          "name": "_projectId",
          "type": "uint256"
        },
        {
          "components": [
            {
              "internalType": "uint256",
              "name": "target",
              "type": "uint256"
            },
            {
              "internalType": "uint256",
              "name": "currency",
              "type": "uint256"
            },
            {
              "internalType": "uint256",
              "name": "duration",
              "type": "uint256"
            },
            {
              "internalType": "uint256",
              "name": "cycleLimit",
              "type": "uint256"
            },
            {
              "internalType": "uint256",
              "name": "discountRate",
              "type": "uint256"
            },
            {
              "internalType": "contract IFundingCycleBallot",
              "name": "ballot",
              "type": "address"
            }
          ],
          "internalType": "struct FundingCycleProperties",
          "name": "_properties",
          "type": "tuple"
        },
        {
          "components": [
            {
              "internalType": "uint256",
              "name": "reservedRate",
              "type": "uint256"
            },
            {
              "internalType": "uint256",
              "name": "bondingCurveRate",
              "type": "uint256"
            },
            {
              "internalType": "uint256",
              "name": "reconfigurationBondingCurveRate",
              "type": "uint256"
            },
            {
              "internalType": "bool",
              "name": "payIsPaused",
              "type": "bool"
            },
            {
              "internalType": "bool",
              "name": "ticketPrintingIsAllowed",
              "type": "bool"
            },
            {
              "internalType": "contract ITreasuryExtension",
              "name": "treasuryExtension",
              "type": "address"
            }
          ],
          "internalType": "struct FundingCycleMetadata2",
          "name": "_metadata",
          "type": "tuple"
        },
        {
          "components": [
            {
              "internalType": "bool",
              "name": "preferUnstaked",
              "type": "bool"
            },
            {
              "internalType": "uint16",
              "name": "percent",
              "type": "uint16"
            },
            {
              "internalType": "uint48",
              "name": "lockedUntil",
              "type": "uint48"
            },
            {
              "internalType": "address payable",
              "name": "beneficiary",
              "type": "address"
            },
            {
              "internalType": "contract IModAllocator",
              "name": "allocator",
              "type": "address"
            },
            {
              "internalType": "uint56",
              "name": "projectId",
              "type": "uint56"
            }
          ],
          "internalType": "struct PayoutMod[]",
          "name": "_payoutMods",
          "type": "tuple[]"
        },
        {
          "components": [
            {
              "internalType": "bool",
              "name": "preferUnstaked",
              "type": "bool"
            },
            {
              "internalType": "uint16",
              "name": "percent",
              "type": "uint16"
            },
            {
              "internalType": "uint48",
              "name": "lockedUntil",
              "type": "uint48"
            },
            {
              "internalType": "address payable",
              "name": "beneficiary",
              "type": "address"
            }
          ],
          "internalType": "struct TicketMod[]",
          "name": "_ticketMods",
          "type": "tuple[]"
        }
      ],
      "name": "configure",
      "outputs": [
        {
          "internalType": "uint256",
          "name": "",
          "type": "uint256"
        }
      ],
      "stateMutability": "nonpayable",
      "type": "function"
    },
    {
      "inputs": [
        {
          "internalType": "uint256",
          "name": "_projectId",
          "type": "uint256"
        }
      ],
      "name": "currentOverflowOf",
      "outputs": [
        {
          "internalType": "uint256",
          "name": "overflow",
          "type": "uint256"
        }
      ],
      "stateMutability": "view",
      "type": "function"
    },
    {
      "inputs": [
        {
          "internalType": "address",
          "name": "_owner",
          "type": "address"
        },
        {
          "internalType": "bytes32",
          "name": "_handle",
          "type": "bytes32"
        },
        {
          "internalType": "string",
          "name": "_uri",
          "type": "string"
        },
        {
          "components": [
            {
              "internalType": "uint256",
              "name": "target",
              "type": "uint256"
            },
            {
              "internalType": "uint256",
              "name": "currency",
              "type": "uint256"
            },
            {
              "internalType": "uint256",
              "name": "duration",
              "type": "uint256"
            },
            {
              "internalType": "uint256",
              "name": "cycleLimit",
              "type": "uint256"
            },
            {
              "internalType": "uint256",
              "name": "discountRate",
              "type": "uint256"
            },
            {
              "internalType": "contract IFundingCycleBallot",
              "name": "ballot",
              "type": "address"
            }
          ],
          "internalType": "struct FundingCycleProperties",
          "name": "_properties",
          "type": "tuple"
        },
        {
          "components": [
            {
              "internalType": "uint256",
              "name": "reservedRate",
              "type": "uint256"
            },
            {
              "internalType": "uint256",
              "name": "bondingCurveRate",
              "type": "uint256"
            },
            {
              "internalType": "uint256",
              "name": "reconfigurationBondingCurveRate",
              "type": "uint256"
            },
            {
              "internalType": "bool",
              "name": "payIsPaused",
              "type": "bool"
            },
            {
              "internalType": "bool",
              "name": "ticketPrintingIsAllowed",
              "type": "bool"
            },
            {
              "internalType": "contract ITreasuryExtension",
              "name": "treasuryExtension",
              "type": "address"
            }
          ],
          "internalType": "struct FundingCycleMetadata2",
          "name": "_metadata",
          "type": "tuple"
        },
        {
          "components": [
            {
              "internalType": "bool",
              "name": "preferUnstaked",
              "type": "bool"
            },
            {
              "internalType": "uint16",
              "name": "percent",
              "type": "uint16"
            },
            {
              "internalType": "uint48",
              "name": "lockedUntil",
              "type": "uint48"
            },
            {
              "internalType": "address payable",
              "name": "beneficiary",
              "type": "address"
            },
            {
              "internalType": "contract IModAllocator",
              "name": "allocator",
              "type": "address"
            },
            {
              "internalType": "uint56",
              "name": "projectId",
              "type": "uint56"
            }
          ],
          "internalType": "struct PayoutMod[]",
          "name": "_payoutMods",
          "type": "tuple[]"
        },
        {
          "components": [
            {
              "internalType": "bool",
              "name": "preferUnstaked",
              "type": "bool"
            },
            {
              "internalType": "uint16",
              "name": "percent",
              "type": "uint16"
            },
            {
              "internalType": "uint48",
              "name": "lockedUntil",
              "type": "uint48"
            },
            {
              "internalType": "address payable",
              "name": "beneficiary",
              "type": "address"
            }
          ],
          "internalType": "struct TicketMod[]",
          "name": "_ticketMods",
          "type": "tuple[]"
        }
      ],
      "name": "deploy",
      "outputs": [],
      "stateMutability": "nonpayable",
      "type": "function"
    },
    {
      "inputs": [],
      "name": "fee",
      "outputs": [
        {
          "internalType": "uint256",
          "name": "",
          "type": "uint256"
        }
      ],
      "stateMutability": "view",
      "type": "function"
    },
    {
      "inputs": [],
      "name": "fundingCycles",
      "outputs": [
        {
          "internalType": "contract IFundingCycles",
          "name": "",
          "type": "address"
        }
      ],
      "stateMutability": "view",
      "type": "function"
    },
    {
      "inputs": [
        {
          "internalType": "uint256",
          "name": "_projectId",
          "type": "uint256"
        },
        {
          "internalType": "contract ITerminal",
          "name": "_to",
          "type": "address"
        }
      ],
      "name": "migrate",
      "outputs": [],
      "stateMutability": "nonpayable",
      "type": "function"
    },
    {
      "inputs": [
        {
          "internalType": "contract ITerminal",
          "name": "",
          "type": "address"
        }
      ],
      "name": "migrationIsAllowed",
      "outputs": [
        {
          "internalType": "bool",
          "name": "",
          "type": "bool"
        }
      ],
      "stateMutability": "view",
      "type": "function"
    },
    {
      "inputs": [],
      "name": "modStore",
      "outputs": [
        {
          "internalType": "contract IModStore",
          "name": "",
          "type": "address"
        }
      ],
      "stateMutability": "view",
      "type": "function"
    },
    {
      "inputs": [],
      "name": "operatorStore",
      "outputs": [
        {
          "internalType": "contract IOperatorStore",
          "name": "",
          "type": "address"
        }
      ],
      "stateMutability": "view",
      "type": "function"
    },
    {
      "inputs": [],
      "name": "owner",
      "outputs": [
        {
          "internalType": "address",
          "name": "",
          "type": "address"
        }
      ],
      "stateMutability": "view",
      "type": "function"
    },
    {
      "inputs": [
        {
          "internalType": "uint256",
          "name": "_projectId",
          "type": "uint256"
        },
        {
          "internalType": "address",
          "name": "_beneficiary",
          "type": "address"
        },
        {
          "internalType": "string",
          "name": "_memo",
          "type": "string"
        },
        {
          "internalType": "bool",
          "name": "_preferUnstakedTickets",
          "type": "bool"
        }
      ],
      "name": "pay",
      "outputs": [
        {
          "internalType": "uint256",
          "name": "",
          "type": "uint256"
        }
      ],
      "stateMutability": "payable",
      "type": "function"
    },
    {
      "inputs": [],
      "name": "prices",
      "outputs": [
        {
          "internalType": "contract IPrices",
          "name": "",
          "type": "address"
        }
      ],
      "stateMutability": "view",
      "type": "function"
    },
    {
      "inputs": [
        {
          "internalType": "uint256",
          "name": "_projectId",
          "type": "uint256"
        }
      ],
      "name": "printReservedTickets",
      "outputs": [
        {
          "internalType": "uint256",
          "name": "amount",
          "type": "uint256"
        }
      ],
      "stateMutability": "nonpayable",
      "type": "function"
    },
    {
      "inputs": [
        {
          "internalType": "uint256",
          "name": "_projectId",
          "type": "uint256"
        },
        {
          "internalType": "uint256",
          "name": "_amount",
          "type": "uint256"
        },
        {
          "internalType": "address",
          "name": "_beneficiary",
          "type": "address"
        },
        {
          "internalType": "string",
          "name": "_memo",
          "type": "string"
        },
        {
          "internalType": "bool",
          "name": "_preferUnstakedTickets",
          "type": "bool"
        }
      ],
      "name": "printTickets",
      "outputs": [],
      "stateMutability": "nonpayable",
      "type": "function"
    },
    {
      "inputs": [],
      "name": "projects",
      "outputs": [
        {
          "internalType": "contract IProjects",
          "name": "",
          "type": "address"
        }
      ],
      "stateMutability": "view",
      "type": "function"
    },
    {
      "inputs": [
        {
          "internalType": "address",
          "name": "_account",
          "type": "address"
        },
        {
          "internalType": "uint256",
          "name": "_projectId",
          "type": "uint256"
        },
        {
          "internalType": "uint256",
          "name": "_count",
          "type": "uint256"
        },
        {
          "internalType": "uint256",
          "name": "_minReturnedWei",
          "type": "uint256"
        },
        {
          "internalType": "address payable",
          "name": "_beneficiary",
          "type": "address"
        },
        {
          "internalType": "bool",
          "name": "_preferUnstaked",
          "type": "bool"
        }
      ],
      "name": "redeem",
      "outputs": [
        {
          "internalType": "uint256",
          "name": "amount",
          "type": "uint256"
        }
      ],
      "stateMutability": "nonpayable",
      "type": "function"
    },
    {
      "inputs": [],
      "name": "renounceOwnership",
      "outputs": [],
      "stateMutability": "nonpayable",
      "type": "function"
    },
    {
      "inputs": [
        {
          "internalType": "uint256",
          "name": "_projectId",
          "type": "uint256"
        },
        {
          "internalType": "uint256",
          "name": "_reservedRate",
          "type": "uint256"
        }
      ],
      "name": "reservedTicketBalanceOf",
      "outputs": [
        {
          "internalType": "uint256",
          "name": "",
          "type": "uint256"
        }
      ],
      "stateMutability": "view",
      "type": "function"
    },
    {
      "inputs": [
        {
          "internalType": "uint256",
          "name": "_fee",
          "type": "uint256"
        }
      ],
      "name": "setFee",
      "outputs": [],
      "stateMutability": "nonpayable",
      "type": "function"
    },
    {
      "inputs": [
        {
          "internalType": "uint256",
          "name": "_projectId",
          "type": "uint256"
        },
        {
          "internalType": "uint256",
          "name": "_amount",
          "type": "uint256"
        },
        {
          "internalType": "uint256",
          "name": "_currency",
          "type": "uint256"
        },
        {
          "internalType": "uint256",
          "name": "_minReturnedWei",
          "type": "uint256"
        }
      ],
      "name": "tap",
      "outputs": [
        {
          "internalType": "uint256",
          "name": "",
          "type": "uint256"
        }
      ],
      "stateMutability": "nonpayable",
      "type": "function"
    },
    {
      "inputs": [],
      "name": "terminalDirectory",
      "outputs": [
        {
          "internalType": "contract ITerminalDirectory",
          "name": "",
          "type": "address"
        }
      ],
      "stateMutability": "view",
      "type": "function"
    },
    {
      "inputs": [],
      "name": "ticketBooth",
      "outputs": [
        {
          "internalType": "contract ITicketBooth",
          "name": "",
          "type": "address"
        }
      ],
      "stateMutability": "view",
      "type": "function"
    },
    {
      "inputs": [
        {
          "internalType": "address",
          "name": "newOwner",
          "type": "address"
        }
      ],
      "name": "transferOwnership",
      "outputs": [],
      "stateMutability": "nonpayable",
      "type": "function"
    }
  ],
  "transactionHash": "0x1d1caaa132458dd068ddecbd6348ee28133ba4ad84d77f29ec157afa37a00e9d",
  "args": [
    "0x34A1d33e49907ADFE05fb4E21411a06a8c4300eE",
    "0x234985c467E90483bA42fB2C7C2f71A1874D805D",
    "0x0d038636a670E8bd8cF7D56BC4626f2a6446cF11",
    "0x5dA2E4Ba83569fb7A22a4aDE14bBEf1236168406",
    "0x5C091AfF0b5A5B211b7828242343e5ec2306a95B",
    "0x22c2580c58D2F84165CD5af02729Af344cE7d637",
    "0x88d8c9E98E6EdE75252c2473abc9724965fe7474",
    "0x69C6026e3938adE9e1ddE8Ff6A37eC96595bF1e1"
  ],
  "solcInputHash": "88dbfc480dccb1a36446303a84f5dfeb",
  "bytecode": "0x610160604052600a6004553480156200001757600080fd5b50604051620063d1380380620063d18339810160408190526200003a91620002b1565b606085901b6001600160601b03191660805260016000556200005c336200018e565b6001600160a01b038816158015906200007d57506001600160a01b03871615155b80156200009257506001600160a01b03861615155b8015620000a757506001600160a01b03841615155b8015620000bc57506001600160a01b03831615155b8015620000d157506001600160a01b03821615155b8015620000e657506001600160a01b03811615155b620001385760405162461bcd60e51b815260206004820152601860248201527f5465726d696e616c56313a205a45524f5f41444452455353000000000000000060448201526064015b60405180910390fd5b6001600160601b0319606089811b821660a05288811b821660c05287811b821660e05285811b82166101005284811b82166101205283901b16610140526200018081620001e0565b505050505050505062000388565b600180546001600160a01b038381166001600160a01b0319831681179093556040519116919082907f8be0079c531659141344cd1fd0a4f28419497f9722a3daafe3b4186f6b6457e090600090a35050565b6001546001600160a01b031633146200023c5760405162461bcd60e51b815260206004820181905260248201527f4f776e61626c653a2063616c6c6572206973206e6f7420746865206f776e657260448201526064016200012f565b6001600160a01b038116620002a35760405162461bcd60e51b815260206004820152602660248201527f4f776e61626c653a206e6577206f776e657220697320746865207a65726f206160448201526564647265737360d01b60648201526084016200012f565b620002ae816200018e565b50565b600080600080600080600080610100898b031215620002cf57600080fd5b8851620002dc8162000372565b60208a0151909850620002ef8162000372565b60408a0151909750620003028162000372565b60608a0151909650620003158162000372565b60808a0151909550620003288162000372565b60a08a01519094506200033b8162000372565b60c08a01519093506200034e8162000372565b60e08a0151909250620003618162000372565b809150509295985092959890939650565b6001600160a01b0381168114620002ae57600080fd5b60805160601c60a05160601c60c05160601c60e05160601c6101005160601c6101205160601c6101405160601c615e9062000541600039600081816102cb01528181611e9d015281816121bf0152818161246101528181613c1201528181613ce201526140c101526000818161052e0152818161089d015261442201526000818161046601528181611b1701528181611bbd01528181613454015281816134fa01528181613ed201526149b301526000818161040501528181610d4901528181611005015281816116c401528181612050015281816125180152818161265c01528181612bc901528181612d7101528181613000015281816139d30152614ade01526000818161032c0152818161075201528181610e680152818161112e01528181611a300152818161297201528181612cb2015281816130f20152818161336d01528181613691015261378401526000818161037301528181610a6101528181610b200152818161198601528181611c630152818161271b01528181612f3101526131aa01526000818161049a0152818161131d015281816113e901528181611d46015281816127fe015261328d0152615e906000f3fe6080604052600436106101ac5760003560e01c80638da5cb5b116100ec578063af82d3be1161008a578063ddca3f4311610064578063ddca3f4314610550578063ddfd414a14610566578063e0f793db14610586578063f2fde38b146105a657600080fd5b8063af82d3be146104bc578063b9f11091146104dc578063d3419bf31461051c57600080fd5b80639b602d60116100c65780639b602d60146103f35780639cc7f70814610427578063a7c3cca114610454578063ad007d631461048857600080fd5b80638da5cb5b1461039557806392ad35f3146103b35780639713eea6146103d357600080fd5b8063405b84fa11610159578063715018a611610133578063715018a614610305578063882af6671461031a5780638a19e3551461034e5780638b79543c1461036157600080fd5b8063405b84fa1461027957806369fe0e2d146102995780636abcf8e3146102b957600080fd5b80633015a5b51161018a5780633015a5b514610217578063308a20ad146102375780633cc83ca61461025957600080fd5b806302c8986f146101b157806308014ddc146101d75780632e9d3b8f146101f7575b600080fd5b6101c46101bf3660046154bd565b6105c6565b6040519081526020015b60405180910390f35b3480156101e357600080fd5b506101c46101f23660046156e3565b6106c0565b34801561020357600080fd5b506101c4610212366004615047565b610d06565b34801561022357600080fd5b506101c461023236600461507c565b611261565b34801561024357600080fd5b50610257610252366004614f39565b611799565b005b34801561026557600080fd5b50610257610274366004614f73565b611967565b34801561028557600080fd5b50610257610294366004615531565b611c34565b3480156102a557600080fd5b506102576102b43660046154a4565b61226d565b3480156102c557600080fd5b506102ed7f000000000000000000000000000000000000000000000000000000000000000081565b6040516001600160a01b0390911681526020016101ce565b34801561031157600080fd5b5061025761234c565b34801561032657600080fd5b506102ed7f000000000000000000000000000000000000000000000000000000000000000081565b61025761035c3660046154a4565b6123b2565b34801561036d57600080fd5b506102ed7f000000000000000000000000000000000000000000000000000000000000000081565b3480156103a157600080fd5b506001546001600160a01b03166102ed565b3480156103bf57600080fd5b506101c46103ce3660046155f5565b612617565b3480156103df57600080fd5b506102576103ee366004615617565b6126ec565b3480156103ff57600080fd5b506102ed7f000000000000000000000000000000000000000000000000000000000000000081565b34801561043357600080fd5b506101c46104423660046154a4565b60036020526000908152604090205481565b34801561046057600080fd5b506102ed7f000000000000000000000000000000000000000000000000000000000000000081565b34801561049457600080fd5b506102ed7f000000000000000000000000000000000000000000000000000000000000000081565b3480156104c857600080fd5b506101c46104d73660046154a4565b612c76565b3480156104e857600080fd5b5061050c6104f7366004614f39565b60056020526000908152604090205460ff1681565b60405190151581526020016101ce565b34801561052857600080fd5b506102ed7f000000000000000000000000000000000000000000000000000000000000000081565b34801561055c57600080fd5b506101c460045481565b34801561057257600080fd5b506101c46105813660046154a4565b6130b6565b34801561059257600080fd5b506101c46105a1366004615561565b613178565b3480156105b257600080fd5b506102576105c1366004614f39565b613573565b600080341161061c5760405162461bcd60e51b815260206004820152601d60248201527f5465726d696e616c56315f313a3a7061793a204241445f414d4f554e5400000060448201526064015b60405180910390fd5b6001600160a01b0385166106725760405162461bcd60e51b815260206004820152601f60248201527f5465726d696e616c56315f313a3a7061793a205a45524f5f41444452455353006044820152606401610613565b6106b686348787878080601f016020809104026020016040519081016040528093929190818152602001838380828437600092019190915250899250613655915050565b9695505050505050565b6000600260005414156107155760405162461bcd60e51b815260206004820152601f60248201527f5265656e7472616e637947756172643a207265656e7472616e742063616c6c006044820152606401610613565b600260009081556040517f1ee2c9bf00000000000000000000000000000000000000000000000000000000815260048101879052602481018690527f00000000000000000000000000000000000000000000000000000000000000006001600160a01b031690631ee2c9bf9060440161020060405180830381600087803b15801561079f57600080fd5b505af11580156107b3573d6000803e3d6000fd5b505050506040513d601f19601f820116820180604052508101906107d791906153d7565b80519091506107ea576000915050610cf9565b80610160015184146108645760405162461bcd60e51b815260206004820152602660248201527f5465726d696e616c56315f313a3a7461703a20554e45585045435445445f435560448201527f5252454e435900000000000000000000000000000000000000000000000000006064820152608401610613565b6101608101516040517f9fa937230000000000000000000000000000000000000000000000000000000081526000916001600160a01b037f00000000000000000000000000000000000000000000000000000000000000001691639fa93723916108d49160040190815260200190565b60206040518083038186803b1580156108ec57600080fd5b505afa158015610900573d6000803e3d6000fd5b505050506040513d601f19601f82011682018060405250810190610924919061530b565b905060006109328783613b94565b9050808511156109845760405162461bcd60e51b815260206004820152601d60248201527f5465726d696e616c56315f313a3a7461703a20494e41444551554154450000006044820152606401610613565b60208084015160009081526003909152604090205480821115610a0f5760405162461bcd60e51b815260206004820152602560248201527f5465726d696e616c56315f313a3a7461703a20494e53554646494349454e545f60448201527f46554e44530000000000000000000000000000000000000000000000000000006064820152608401610613565b610a198282615c8a565b60008a81526003602090815260408083209390935586015191517f6352211e0000000000000000000000000000000000000000000000000000000081526004810192909252907f00000000000000000000000000000000000000000000000000000000000000006001600160a01b031690636352211e9060240160206040518083038186803b158015610aab57600080fd5b505afa158015610abf573d6000803e3d6000fd5b505050506040513d601f19601f82011682018060405250810190610ae39190614f56565b6040517f49491987000000000000000000000000000000000000000000000000000000008152600481018c90529091506000906001600160a01b037f00000000000000000000000000000000000000000000000000000000000000001690634949198790602401602060405180830381600087803b158015610b6457600080fd5b505af1158015610b78573d6000803e3d6000fd5b505050506040513d601f19601f82011682018060405250810190610b9c919061530b565b905060008087610180015111610bb3576000610c08565b6101808701516040517f4665652066726f6d2040000000000000000000000000000000000000000000006020820152602a8101849052610c089187918690604a01604051602081830303815290604052613ba9565b90506000610c6188610c1a8489615c8a565b6040517f5061796f75742066726f6d2040000000000000000000000000000000000000006020820152602d8101879052604d01604051602081830303815290604052613e8e565b90508015610c7357610c7384826142ff565b836001600160a01b0316886020015189600001517fe7f36a5ce6404ca99aa79e20649f15a86eed188b6362c51d0302ba182b7af3b88f8c6101600151878c610cbb9190615c8a565b6040805193845260208401929092529082015260608101869052608081018790523360a082015260c00160405180910390a450509451955050505050505b6001600055949350505050565b6040517efdd58e0000000000000000000000000000000000000000000000000000000081526001600160a01b0384811660048301526024820184905260009183917f0000000000000000000000000000000000000000000000000000000000000000169062fdd58e9060440160206040518083038186803b158015610d8a57600080fd5b505afa158015610d9e573d6000803e3d6000fd5b505050506040513d601f19601f82011682018060405250810190610dc2919061530b565b1015610e365760405162461bcd60e51b815260206004820152603560248201527f5465726d696e616c56315f313a3a636c61696d61626c654f766572666c6f773a60448201527f20494e53554646494349454e545f5449434b45545300000000000000000000006064820152608401610613565b6040517f43a266c2000000000000000000000000000000000000000000000000000000008152600481018490526000907f00000000000000000000000000000000000000000000000000000000000000006001600160a01b0316906343a266c2906024016102006040518083038186803b158015610eb357600080fd5b505afa158015610ec7573d6000803e3d6000fd5b505050506040513d601f19601f82011682018060405250810190610eeb91906153d7565b9050806040015160001415610f0457600091505061125a565b6000610f0f8261441d565b905080925060006022836101e00151901c6001600160a01b03161115610fc3576022826101e00151901c6001600160a01b031663b37961da866040518263ffffffff1660e01b8152600401610f6691815260200190565b60206040518083038186803b158015610f7e57600080fd5b505afa158015610f92573d6000803e3d6000fd5b505050506040513d601f19601f82011682018060405250810190610fb6919061530b565b610fc09084615bfe565b92505b82610fd35760009250505061125a565b6040517f75b0d9cd000000000000000000000000000000000000000000000000000000008152600481018690526000907f00000000000000000000000000000000000000000000000000000000000000006001600160a01b0316906375b0d9cd9060240160206040518083038186803b15801561104f57600080fd5b505afa158015611063573d6000803e3d6000fd5b505050506040513d601f19601f82011682018060405250810190611087919061530b565b905060006110b560026000898152602001908152602001600020546008866101e00151901c60ff1684614533565b905080156110ca576110c78183615bfe565b91505b818614156110ec578285116110df57846110e1565b825b94505050505061125a565b60006110f98688856145a6565b9050600060016040517fc55f571c000000000000000000000000000000000000000000000000000000008152600481018b90527f00000000000000000000000000000000000000000000000000000000000000006001600160a01b03169063c55f571c9060240160206040518083038186803b15801561117857600080fd5b505afa15801561118c573d6000803e3d6000fd5b505050506040513d601f19601f820116820180604052508101906111b09190615324565b60038111156111c1576111c1615d71565b146111d8576010866101e00151901c60ff166111e6565b6018866101e00151901c60ff165b90508060c814156111f95781965061123d565b80611210576112098289866145a6565b965061123d565b61123a826112298a6112238560c8615c8a565b886145a6565b6112339084615bfe565b60c86145a6565b96505b848711156112535784965050505050505061125a565b5050505050505b9392505050565b6000600260005414156112b65760405162461bcd60e51b815260206004820152601f60248201527f5265656e7472616e637947756172643a207265656e7472616e742063616c6c006044820152606401610613565b600260005586866003336001600160a01b038416148061139757506040517fc161c93f0000000000000000000000000000000000000000000000000000000081523360048201526001600160a01b03848116602483015260448201849052606482018390527f0000000000000000000000000000000000000000000000000000000000000000169063c161c93f9060840160206040518083038186803b15801561135f57600080fd5b505afa158015611373573d6000803e3d6000fd5b505050506040513d601f19601f8201168201806040525081019061139791906152ee565b8061146357506040517fc161c93f0000000000000000000000000000000000000000000000000000000081523360048201526001600160a01b03848116602483015260006044830152606482018390527f0000000000000000000000000000000000000000000000000000000000000000169063c161c93f9060840160206040518083038186803b15801561142b57600080fd5b505afa15801561143f573d6000803e3d6000fd5b505050506040513d601f19601f8201168201806040525081019061146391906152ee565b6114af5760405162461bcd60e51b815260206004820152601860248201527f4f706572617461626c653a20554e415554484f52495a454400000000000000006044820152606401610613565b600088116114ff5760405162461bcd60e51b815260206004820152601b60248201527f5465726d696e616c56315f313a3a72656465656d3a204e4f5f4f5000000000006044820152606401610613565b6001600160a01b03861661157b5760405162461bcd60e51b815260206004820152602260248201527f5465726d696e616c56315f313a3a72656465656d3a205a45524f5f414444524560448201527f53530000000000000000000000000000000000000000000000000000000000006064820152608401610613565b6115868a8a8a610d06565b9350868410156115d85760405162461bcd60e51b815260206004820181905260248201527f5465726d696e616c56315f313a3a72656465656d3a20494e41444551554154456044820152606401610613565b8315611608576000898152600360205260409020546115f8908590615c8a565b60008a8152600360205260409020555b600089815260026020526040812054908112611647578881126116345761162f8982615c16565b611664565b61163e818a615c16565b61162f90615cda565b8861165182615cda565b61165b9190615bfe565b61166490615cda565b60008b8152600260205260409081902091909155517f65e0d7310000000000000000000000000000000000000000000000000000000081526001600160a01b038c81166004830152602482018c9052604482018b905287151560648301527f000000000000000000000000000000000000000000000000000000000000000016906365e0d73190608401600060405180830381600087803b15801561170857600080fd5b505af115801561171c573d6000803e3d6000fd5b5050505060008511156117335761173387866142ff565b604080518a815260208101879052338183015290518b916001600160a01b038a811692908f16917f78ce282a3b64e54349642ee14253bf3ca2a4c69b6e479d57d196027f1d0a514e919081900360600190a4505060016000555090979650505050505050565b6001546001600160a01b031633146117f35760405162461bcd60e51b815260206004820181905260248201527f4f776e61626c653a2063616c6c6572206973206e6f7420746865206f776e65726044820152606401610613565b6001600160a01b03811661186f5760405162461bcd60e51b815260206004820152602a60248201527f5465726d696e616c56315f313a3a616c6c6f774d6967726174696f6e3a205a4560448201527f524f5f41444452455353000000000000000000000000000000000000000000006064820152608401610613565b6001600160a01b0381163014156118ee5760405162461bcd60e51b815260206004820152602360248201527f5465726d696e616c56315f313a3a616c6c6f774d6967726174696f6e3a204e4f60448201527f5f4f5000000000000000000000000000000000000000000000000000000000006064820152608401610613565b6001600160a01b03811660008181526005602090815260409182902080547fffffffffffffffffffffffffffffffffffffffffffffffffffffffffffffff0016600117905590519182527fdbee026e3c3dc50322e5f718d6bf90a96cefdc9e2bfa693436d0e1ddf600d1cc91015b60405180910390a150565b600061198061197b36869003860186615345565b6146ab565b905060007f00000000000000000000000000000000000000000000000000000000000000006001600160a01b03166317753c468b8b8b8b306040518663ffffffff1660e01b81526004016119d8959493929190615762565b602060405180830381600087803b1580156119f257600080fd5b505af1158015611a06573d6000803e3d6000fd5b505050506040513d601f19601f82011682018060405250810190611a2a919061530b565b905060007f00000000000000000000000000000000000000000000000000000000000000006001600160a01b0316638a1b0eb483898660045460016040518663ffffffff1660e01b8152600401611a859594939291906158aa565b61020060405180830381600087803b158015611aa057600080fd5b505af1158015611ab4573d6000803e3d6000fd5b505050506040513d601f19601f82011682018060405250810190611ad891906153d7565b855190915015611b815760808101516040517fa67e210a0000000000000000000000000000000000000000000000000000000081526001600160a01b037f0000000000000000000000000000000000000000000000000000000000000000169163a67e210a91611b4e9186918a90600401615921565b600060405180830381600087803b158015611b6857600080fd5b505af1158015611b7c573d6000803e3d6000fd5b505050505b835115611c275760808101516040517febe352a40000000000000000000000000000000000000000000000000000000081526001600160a01b037f0000000000000000000000000000000000000000000000000000000000000000169163ebe352a491611bf491869189906004016159cd565b600060405180830381600087803b158015611c0e57600080fd5b505af1158015611c22573d6000803e3d6000fd5b505050505b5050505050505050505050565b6040517f6352211e000000000000000000000000000000000000000000000000000000008152600481018390527f00000000000000000000000000000000000000000000000000000000000000006001600160a01b031690636352211e9060240160206040518083038186803b158015611cad57600080fd5b505afa158015611cc1573d6000803e3d6000fd5b505050506040513d601f19601f82011682018060405250810190611ce59190614f56565b826004336001600160a01b0384161480611dc057506040517fc161c93f0000000000000000000000000000000000000000000000000000000081523360048201526001600160a01b03848116602483015260448201849052606482018390527f0000000000000000000000000000000000000000000000000000000000000000169063c161c93f9060840160206040518083038186803b158015611d8857600080fd5b505afa158015611d9c573d6000803e3d6000fd5b505050506040513d601f19601f82011682018060405250810190611dc091906152ee565b611e0c5760405162461bcd60e51b815260206004820152601860248201527f4f706572617461626c653a20554e415554484f52495a454400000000000000006044820152606401610613565b60026000541415611e5f5760405162461bcd60e51b815260206004820152601f60248201527f5265656e7472616e637947756172643a207265656e7472616e742063616c6c006044820152606401610613565b60026000556040517f4fe0eced0000000000000000000000000000000000000000000000000000000081526004810186905230906001600160a01b037f00000000000000000000000000000000000000000000000000000000000000001690634fe0eced9060240160206040518083038186803b158015611edf57600080fd5b505afa158015611ef3573d6000803e3d6000fd5b505050506040513d601f19601f82011682018060405250810190611f179190614f56565b6001600160a01b031614611f935760405162461bcd60e51b815260206004820152602360248201527f5465726d696e616c56315f313a3a6d6967726174653a20554e415554484f524960448201527f5a454400000000000000000000000000000000000000000000000000000000006064820152608401610613565b6001600160a01b03841660009081526005602052604090205460ff166120215760405162461bcd60e51b815260206004820152602260248201527f5465726d696e616c56315f313a3a6d6967726174653a204e4f545f414c4c4f5760448201527f45440000000000000000000000000000000000000000000000000000000000006064820152608401610613565b6040517f75b0d9cd000000000000000000000000000000000000000000000000000000008152600481018690527f00000000000000000000000000000000000000000000000000000000000000006001600160a01b0316906375b0d9cd9060240160206040518083038186803b15801561209a57600080fd5b505afa1580156120ae573d6000803e3d6000fd5b505050506040513d601f19601f820116820180604052508101906120d2919061530b565b600086815260026020526040902054146120f1576120ef85612c76565b505b600085815260036020526040812080549190558015612180576040517f8a19e355000000000000000000000000000000000000000000000000000000008152600481018790526001600160a01b03861690638a19e3559083906024016000604051808303818588803b15801561216657600080fd5b505af115801561217a573d6000803e3d6000fd5b50505050505b6040517f9fc9ea47000000000000000000000000000000000000000000000000000000008152600481018790526001600160a01b0386811660248301527f00000000000000000000000000000000000000000000000000000000000000001690639fc9ea4790604401600060405180830381600087803b15801561220357600080fd5b505af1158015612217573d6000803e3d6000fd5b5050604080518481523360208201526001600160a01b03891693508992507fa7519e5f94697b7f53e97c5eb46a0c730a296ab686ab8fd333835c5f735784eb910160405180910390a35050600160005550505050565b6001546001600160a01b031633146122c75760405162461bcd60e51b815260206004820181905260248201527f4f776e61626c653a2063616c6c6572206973206e6f7420746865206f776e65726044820152606401610613565b600a8111156123185760405162461bcd60e51b815260206004820152601d60248201527f5465726d696e616c56315f313a3a7365744665653a204241445f4645450000006044820152606401610613565b60048190556040518181527e172ddfc5ae88d08b3de01a5a187667c37a5a53989e8c175055cb6c993792a79060200161195c565b6001546001600160a01b031633146123a65760405162461bcd60e51b815260206004820181905260248201527f4f776e61626c653a2063616c6c6572206973206e6f7420746865206f776e65726044820152606401610613565b6123b06000614905565b565b600034116124285760405162461bcd60e51b815260206004820152602660248201527f5465726d696e616c56315f313a3a616464546f42616c616e63653a204241445f60448201527f414d4f554e5400000000000000000000000000000000000000000000000000006064820152608401610613565b6040517f4fe0eced0000000000000000000000000000000000000000000000000000000081526004810182905230906001600160a01b037f00000000000000000000000000000000000000000000000000000000000000001690634fe0eced9060240160206040518083038186803b1580156124a357600080fd5b505afa1580156124b7573d6000803e3d6000fd5b505050506040513d601f19601f820116820180604052508101906124db9190614f56565b6001600160a01b0316146125aa576040517f75b0d9cd000000000000000000000000000000000000000000000000000000008152600481018290527f00000000000000000000000000000000000000000000000000000000000000006001600160a01b0316906375b0d9cd9060240160206040518083038186803b15801561256257600080fd5b505afa158015612576573d6000803e3d6000fd5b505050506040513d601f19601f8201168201806040525081019061259a919061530b565b6000828152600260205260409020555b6000818152600360205260409020546125c4903490615bfe565b600082815260036020908152604091829020929092558051348152339281019290925282917f08534c4f6026a713959f9286d994e8430e6d0fd11045360abf782bacaa288d43910160405180910390a250565b6000828152600260205260408082205490517f75b0d9cd000000000000000000000000000000000000000000000000000000008152600481018590526126e3919084907f00000000000000000000000000000000000000000000000000000000000000006001600160a01b0316906375b0d9cd9060240160206040518083038186803b1580156126a657600080fd5b505afa1580156126ba573d6000803e3d6000fd5b505050506040513d601f19601f820116820180604052508101906126de919061530b565b614533565b90505b92915050565b6040517f6352211e000000000000000000000000000000000000000000000000000000008152600481018690527f00000000000000000000000000000000000000000000000000000000000000006001600160a01b031690636352211e9060240160206040518083038186803b15801561276557600080fd5b505afa158015612779573d6000803e3d6000fd5b505050506040513d601f19601f8201168201806040525081019061279d9190614f56565b856011336001600160a01b038416148061287857506040517fc161c93f0000000000000000000000000000000000000000000000000000000081523360048201526001600160a01b03848116602483015260448201849052606482018390527f0000000000000000000000000000000000000000000000000000000000000000169063c161c93f9060840160206040518083038186803b15801561284057600080fd5b505afa158015612854573d6000803e3d6000fd5b505050506040513d601f19601f8201168201806040525081019061287891906152ee565b6128c45760405162461bcd60e51b815260206004820152601860248201527f4f706572617461626c653a20554e415554484f52495a454400000000000000006044820152606401610613565b6001600160a01b0386166129405760405162461bcd60e51b815260206004820152602860248201527f5465726d696e616c56315f313a3a7072696e745469636b6574733a205a45524f60448201527f5f414444524553530000000000000000000000000000000000000000000000006064820152608401610613565b6040517f43a266c2000000000000000000000000000000000000000000000000000000008152600481018990526000907f00000000000000000000000000000000000000000000000000000000000000006001600160a01b0316906343a266c2906024016102006040518083038186803b1580156129bd57600080fd5b505afa1580156129d1573d6000803e3d6000fd5b505050506040513d601f19601f820116820180604052508101906129f591906153d7565b9050806040015160001480612a1657506021816101e00151901c6001166001145b612a885760405162461bcd60e51b815260206004820152602760248201527f5465726d696e616c56315f313a3a7072696e745469636b6574733a204e4f545f60448201527f414c4c4f574544000000000000000000000000000000000000000000000000006064820152608401610613565b6000898152600260205260408120541280612add57506000898152600260205260409020547f7fffffffffffffffffffffffffffffffffffffffffffffffffffffffffffffff90612ada908a90615bfe565b11155b612b4f5760405162461bcd60e51b815260206004820152602d60248201527f5465726d696e616c56315f313a3a7072696e745469636b6574733a20494e545f60448201527f4c494d49545f52454143484544000000000000000000000000000000000000006064820152608401610613565b600089815260026020526040902054612b69908990615b8a565b60008a8152600260205260409081902091909155517fe0826c890000000000000000000000000000000000000000000000000000000081526001600160a01b038881166004830152602482018b9052604482018a905286151560648301527f0000000000000000000000000000000000000000000000000000000000000000169063e0826c8990608401600060405180830381600087803b158015612c0d57600080fd5b505af1158015612c21573d6000803e3d6000fd5b50505050866001600160a01b0316897fb745c0ba548003047e8dc09b0dbf5eaed8ae262b5fe0221b4439af8cc40199058a8933604051612c6393929190615878565b60405180910390a3505050505050505050565b6040517f43a266c20000000000000000000000000000000000000000000000000000000081526004810182905260009081906001600160a01b037f000000000000000000000000000000000000000000000000000000000000000016906343a266c2906024016102006040518083038186803b158015612cf557600080fd5b505afa158015612d09573d6000803e3d6000fd5b505050506040513d601f19601f82011682018060405250810190612d2d91906153d7565b8051909150612d3f5750600092915050565b6040517f75b0d9cd000000000000000000000000000000000000000000000000000000008152600481018490526000907f00000000000000000000000000000000000000000000000000000000000000006001600160a01b0316906375b0d9cd9060240160206040518083038186803b158015612dbb57600080fd5b505afa158015612dcf573d6000803e3d6000fd5b505050506040513d601f19601f82011682018060405250810190612df3919061530b565b9050612e1f60026000868152602001908152602001600020546008846101e00151901c60ff1683614533565b92507f7fffffffffffffffffffffffffffffffffffffffffffffffffffffffffffffff612e4c8483615bfe565b1115612ec05760405162461bcd60e51b815260206004820152603560248201527f5465726d696e616c56315f313a3a7072696e7452657365727665645469636b6560448201527f74733a20494e545f4c494d49545f5245414348454400000000000000000000006064820152608401610613565b612eca8382615bfe565b6000858152600260205260408120919091558315612ef157612eec838561496f565b612ef4565b60005b6040517f6352211e000000000000000000000000000000000000000000000000000000008152600481018790529091506000906001600160a01b037f00000000000000000000000000000000000000000000000000000000000000001690636352211e9060240160206040518083038186803b158015612f7357600080fd5b505afa158015612f87573d6000803e3d6000fd5b505050506040513d601f19601f82011682018060405250810190612fab9190614f56565b9050811561305d576040517fe0826c890000000000000000000000000000000000000000000000000000000081526001600160a01b0382811660048301526024820188905260448201849052600060648301527f0000000000000000000000000000000000000000000000000000000000000000169063e0826c8990608401600060405180830381600087803b15801561304457600080fd5b505af1158015613058573d6000803e3d6000fd5b505050505b83516040805187815260208101859052338183015290516001600160a01b03841692899290917f54ad84f37b2d6ff349b859f99f05bceaba2ee199cde3b63ae47c38f5d6116c0d9181900360600190a450505050919050565b6040517f43a266c20000000000000000000000000000000000000000000000000000000081526004810182905260009081906001600160a01b037f000000000000000000000000000000000000000000000000000000000000000016906343a266c2906024016102006040518083038186803b15801561313557600080fd5b505afa158015613149573d6000803e3d6000fd5b505050506040513d601f19601f8201168201806040525081019061316d91906153d7565b905061125a8161441d565b6040517f6352211e000000000000000000000000000000000000000000000000000000008152600481018690526000907f00000000000000000000000000000000000000000000000000000000000000006001600160a01b031690636352211e9060240160206040518083038186803b1580156131f457600080fd5b505afa158015613208573d6000803e3d6000fd5b505050506040513d601f19601f8201168201806040525081019061322c9190614f56565b866001336001600160a01b038416148061330757506040517fc161c93f0000000000000000000000000000000000000000000000000000000081523360048201526001600160a01b03848116602483015260448201849052606482018390527f0000000000000000000000000000000000000000000000000000000000000000169063c161c93f9060840160206040518083038186803b1580156132cf57600080fd5b505afa1580156132e3573d6000803e3d6000fd5b505050506040513d601f19601f8201168201806040525081019061330791906152ee565b6133535760405162461bcd60e51b815260206004820152601860248201527f4f706572617461626c653a20554e415554484f52495a454400000000000000006044820152606401610613565b600061336761197b368a90038a018a615345565b905060007f00000000000000000000000000000000000000000000000000000000000000006001600160a01b0316638a1b0eb48c8c8560045460006040518663ffffffff1660e01b81526004016133c29594939291906158aa565b61020060405180830381600087803b1580156133dd57600080fd5b505af11580156133f1573d6000803e3d6000fd5b505050506040513d601f19601f8201168201806040525081019061341591906153d7565b8851909150156134be5760808101516040517fa67e210a0000000000000000000000000000000000000000000000000000000081526001600160a01b037f0000000000000000000000000000000000000000000000000000000000000000169163a67e210a9161348b918f918d90600401615921565b600060405180830381600087803b1580156134a557600080fd5b505af11580156134b9573d6000803e3d6000fd5b505050505b8651156135645760808101516040517febe352a40000000000000000000000000000000000000000000000000000000081526001600160a01b037f0000000000000000000000000000000000000000000000000000000000000000169163ebe352a491613531918f918c906004016159cd565b600060405180830381600087803b15801561354b57600080fd5b505af115801561355f573d6000803e3d6000fd5b505050505b519a9950505050505050505050565b6001546001600160a01b031633146135cd5760405162461bcd60e51b815260206004820181905260248201527f4f776e61626c653a2063616c6c6572206973206e6f7420746865206f776e65726044820152606401610613565b6001600160a01b0381166136495760405162461bcd60e51b815260206004820152602660248201527f4f776e61626c653a206e6577206f776e657220697320746865207a65726f206160448201527f64647265737300000000000000000000000000000000000000000000000000006064820152608401610613565b61365281614905565b50565b6040517f43a266c20000000000000000000000000000000000000000000000000000000081526004810186905260009081906001600160a01b037f000000000000000000000000000000000000000000000000000000000000000016906343a266c2906024016102006040518083038186803b1580156136d457600080fd5b505afa1580156136e8573d6000803e3d6000fd5b505050506040513d601f19601f8201168201806040525081019061370c91906153d7565b90506020816101e00151901c60011660001461376a5760405162461bcd60e51b815260206004820152601960248201527f5465726d696e616c56315f313a3a7061793a20504155534544000000000000006044820152606401610613565b60008160400151600014613782578160c00151613813565b7f00000000000000000000000000000000000000000000000000000000000000006001600160a01b031663e16fd0ec6040518163ffffffff1660e01b815260040160206040518083038186803b1580156137db57600080fd5b505afa1580156137ef573d6000803e3d6000fd5b505050506040513d601f19601f82011682018060405250810190613813919061530b565b905060006138218883614be7565b905060008360400151600014613843576008846101e00151901c60ff16613846565b60005b90506000613859836112338460c8615c8a565b60008c815260036020526040902054909150613876908b90615bfe565b60008c8152600360205260409020558015613a345760408501516139855760008b81526002602052604081205412806138e9575060008b8152600260205260409020547f7fffffffffffffffffffffffffffffffffffffffffffffffffffffffffffffff906138e6908590615bfe565b11155b61395b5760405162461bcd60e51b815260206004820152602360248201527f5465726d696e616c56315f313a3a70617920494e545f4c494d49545f5245414360448201527f48454400000000000000000000000000000000000000000000000000000000006064820152608401610613565b60008b815260026020526040902054613975908290615b8a565b60008c8152600260205260409020555b6040517fe0826c890000000000000000000000000000000000000000000000000000000081526001600160a01b038a81166004830152602482018d90526044820183905288151560648301527f0000000000000000000000000000000000000000000000000000000000000000169063e0826c8990608401600060405180830381600087803b158015613a1757600080fd5b505af1158015613a2b573d6000803e3d6000fd5b50505050613b35565b8215613b355760008b8152600260205260408120541380613a99575060008b8152600260205260409020547f7fffffffffffffffffffffffffffffffffffffffffffffffffffffffffffffff908490613a8c90615cda565b613a969190615bfe565b11155b613b0b5760405162461bcd60e51b815260206004820152602d60248201527f5465726d696e616c56315f313a3a7072696e745469636b6574733a20494e545f60448201527f4c494d49545f52454143484544000000000000000000000000000000000000006064820152608401610613565b60008b815260026020526040902054613b25908490615c16565b60008c8152600260205260409020555b886001600160a01b03168b86600001517fd595184f93e5de76e6c92bf66d279d827d0be8fad5cec3a420d86716e1a665328d85888e33604051613b7c959493929190615a54565b60405180910390a45050915198975050505050505050565b60006126e383670de0b6b3a7640000846145a6565b6000613bc08560c8613bbb8782615bfe565b6145a6565b613bca9086615c8a565b905080613bd957506000613e86565b6040517f4fe0eced0000000000000000000000000000000000000000000000000000000081526001600482015230906001600160a01b037f00000000000000000000000000000000000000000000000000000000000000001690634fe0eced9060240160206040518083038186803b158015613c5457600080fd5b505afa158015613c68573d6000803e3d6000fd5b505050506040513d601f19601f82011682018060405250810190613c8c9190614f56565b6001600160a01b03161415613cb057613caa60018285856000613655565b50613e86565b6040517f4fe0eced000000000000000000000000000000000000000000000000000000008152600160048201526000907f00000000000000000000000000000000000000000000000000000000000000006001600160a01b031690634fe0eced9060240160206040518083038186803b158015613d2c57600080fd5b505afa158015613d40573d6000803e3d6000fd5b505050506040513d601f19601f82011682018060405250810190613d649190614f56565b90506001600160a01b038116613de25760405162461bcd60e51b815260206004820152602a60248201527f5465726d696e616c56315f313a3a5f74616b654665653a205445524d494e414c60448201527f5f4e4f545f464f554e44000000000000000000000000000000000000000000006064820152608401610613565b6040517f02c8986f0000000000000000000000000000000000000000000000000000000081526001600160a01b038216906302c8986f908490613e3190600190899089906000906004016157b6565b6020604051808303818588803b158015613e4a57600080fd5b505af1158015613e5e573d6000803e3d6000fd5b50505050506040513d601f19601f82011682018060405250810190613e83919061530b565b50505b949350505050565b602083015160808401516040517f7559aaaa0000000000000000000000000000000000000000000000000000000081526004810192909252602482015282906000907f00000000000000000000000000000000000000000000000000000000000000006001600160a01b031690637559aaaa9060440160006040518083038186803b158015613f1c57600080fd5b505afa158015613f30573d6000803e3d6000fd5b505050506040513d6000823e601f3d908101601f19168201604052613f5891908101906150e3565b9050805160001415613f6a575061125a565b60005b81518110156142f6576000828281518110613f8a57613f8a615da0565b602002602001015190506000613fab87836020015161ffff166127106145a6565b905080156142905760808201516001600160a01b03161561406e576080820151602089015160a084015160608501516040517fec695ef7000000000000000000000000000000000000000000000000000000008152600481019390935266ffffffffffffff90911660248301526001600160a01b0390811660448301529091169063ec695ef79083906064016000604051808303818588803b15801561405057600080fd5b505af1158015614064573d6000803e3d6000fd5b5050505050614290565b60a082015166ffffffffffffff16156142825760a08201516040517f4fe0eced00000000000000000000000000000000000000000000000000000000815266ffffffffffffff90911660048201526000907f00000000000000000000000000000000000000000000000000000000000000006001600160a01b031690634fe0eced9060240160206040518083038186803b15801561410b57600080fd5b505afa15801561411f573d6000803e3d6000fd5b505050506040513d601f19601f820116820180604052508101906141439190614f56565b90506001600160a01b03811661419b5760405162461bcd60e51b815260206004820152601a60248201527f5465726d696e616c56315f313a3a7461703a204241445f4d4f440000000000006044820152606401610613565b6001600160a01b0381163014156141d4576141ce8360a0015166ffffffffffffff168385606001518a8760000151613655565b5061427c565b60a0830151606084015184516040517f02c8986f0000000000000000000000000000000000000000000000000000000081526001600160a01b038516936302c8986f938793614228938e9190600401615a94565b6020604051808303818588803b15801561424157600080fd5b505af1158015614255573d6000803e3d6000fd5b50505050506040513d601f19601f8201168201806040525081019061427a919061530b565b505b50614290565b6142908260600151826142ff565b61429a8186615c8a565b9450876020015188600001517fd37e528ac0cd9d9eeaa32903a436be474cce5651f7d3313a580ceacdae5cb3458484336040516142d9939291906157f1565b60405180910390a3505080806142ee90615ca1565b915050613f6d565b50509392505050565b8047101561434f5760405162461bcd60e51b815260206004820152601d60248201527f416464726573733a20696e73756666696369656e742062616c616e63650000006044820152606401610613565b6000826001600160a01b03168260405160006040518083038185875af1925050503d806000811461439c576040519150601f19603f3d011682016040523d82523d6000602084013e6143a1565b606091505b50509050806144185760405162461bcd60e51b815260206004820152603a60248201527f416464726573733a20756e61626c6520746f2073656e642076616c75652c207260448201527f6563697069656e74206d617920686176652072657665727465640000000000006064820152608401610613565b505050565b6000807f00000000000000000000000000000000000000000000000000000000000000006001600160a01b0316639fa937238461016001516040518263ffffffff1660e01b815260040161447391815260200190565b60206040518083038186803b15801561448b57600080fd5b505afa15801561449f573d6000803e3d6000fd5b505050506040513d601f19601f820116820180604052508101906144c3919061530b565b90506000836101c001518461014001516144dd9190615c8a565b9050600081156144f6576144f18284613b94565b6144f9565b60005b602080870151600090815260039091526040902054909150818110614527576145228282615c8a565b6106b6565b60009695505050505050565b60008060008512156145575761454885615cda565b6145529084615bfe565b614561565b6145618584615c8a565b90508061457257600091505061125a565b8360c8141561458257905061125a565b806145938160c8613bbb8882615c8a565b61459d9190615c8a565b95945050505050565b600080807fffffffffffffffffffffffffffffffffffffffffffffffffffffffffffffffff85870985870292508281108382030391505080600014156145ff578382816145f5576145f5615d42565b049250505061125a565b838110614642576040517f773cc18c0000000000000000000000000000000000000000000000000000000081526004810182905260248101859052604401610613565b60008486880960026001871981018816978890046003810283188082028403028082028403028082028403028082028403028082028403029081029092039091026000889003889004909101858311909403939093029303949094049190911702949350505050565b600060c88260000151111561474e5760405162461bcd60e51b815260206004820152604560248201527f5465726d696e616c56315f313a3a5f76616c6964617465416e645061636b467560448201527f6e64696e674379636c654d657461646174613a204241445f524553455256454460648201527f5f52415445000000000000000000000000000000000000000000000000000000608482015260a401610613565b60c8826020015111156147ef5760405162461bcd60e51b815260206004820152604a60248201527f5465726d696e616c56315f313a3a5f76616c6964617465416e645061636b467560448201527f6e64696e674379636c654d657461646174613a204241445f424f4e44494e475f60648201527f43555256455f5241544500000000000000000000000000000000000000000000608482015260a401610613565b60c8826040015111156148905760405162461bcd60e51b815260206004820152605a60248201527f5465726d696e616c56315f313a3a5f76616c6964617465416e645061636b467560448201527f6e64696e674379636c654d657461646174613a204241445f5245434f4e46494760648201527f55524154494f4e5f424f4e44494e475f43555256455f52415445000000000000608482015260a401610613565b50805160208201516040830151606084015160189190911b60109290921b60089390931b929092171760011790156148ca57640100000000175b8160800151156148dc57640200000000175b60a0919091015160221b7803fffffffffffffffffffffffffffffffffffffffc00000000161790565b600180546001600160a01b038381167fffffffffffffffffffffffff0000000000000000000000000000000000000000831681179093556040519116919082907f8be0079c531659141344cd1fd0a4f28419497f9722a3daafe3b4186f6b6457e090600090a35050565b602082015160808301516040517f4833b5120000000000000000000000000000000000000000000000000000000081526004810192909252602482015281906000907f00000000000000000000000000000000000000000000000000000000000000006001600160a01b031690634833b5129060440160006040518083038186803b1580156149fd57600080fd5b505afa158015614a11573d6000803e3d6000fd5b505050506040513d6000823e601f3d908101601f19168201604052614a3991908101906151fa565b905060005b8151811015614bdf576000828281518110614a5b57614a5b615da0565b602002602001015190506000614a7c86836020015161ffff166127106145a6565b90508015614b3d576060820151602088015183516040517fe0826c890000000000000000000000000000000000000000000000000000000081526001600160a01b039384166004820152602481019290925260448201849052151560648201527f00000000000000000000000000000000000000000000000000000000000000009091169063e0826c8990608401600060405180830381600087803b158015614b2457600080fd5b505af1158015614b38573d6000803e3d6000fd5b505050505b614b478186615c8a565b6020808901518951604080518751151581528785015161ffff16948101949094528087015165ffffffffffff16908401526060808701516001600160a01b031690840152608083018590523360a084015292975091907fe499491e3f5b7f35b5078102c27aa039bbde7ed027b91c996ac41e15d8f87d5c9060c00160405180910390a350508080614bd790615ca1565b915050614a3e565b505092915050565b60006126e38383600080807fffffffffffffffffffffffffffffffffffffffffffffffffffffffffffffffff848609848602925082811083820303915050670de0b6b3a76400008110614c69576040517fd31b340200000000000000000000000000000000000000000000000000000000815260048101829052602401610613565b600080670de0b6b3a76400008688099150506706f05b59d3b1ffff811182614ca35780670de0b6b3a76400008504019450505050506126e6565b6204000082850304939091119091037d40000000000000000000000000000000000000000000000000000000000002919091177faccb18165bd6fe31ae1cf318dc5b51eee0e1ba569b88cd74c1773b91fac106690201905092915050565b600082601f830112614d1257600080fd5b81356020614d27614d2283615b66565b615b35565b8281528181019085830160c080860288018501891015614d4657600080fd5b6000805b87811015614de45782848c031215614d60578182fd5b614d68615ac5565b8435614d7381615e13565b815284880135614d8281615e21565b81890152604085810135614d9581615e31565b90820152606085810135614da881615dfe565b90820152608085810135614dbb81615dfe565b9082015260a085810135614dce81615e45565b9082015286529486019492820192600101614d4a565b50929998505050505050505050565b600082601f830112614e0457600080fd5b81356020614e14614d2283615b66565b80838252828201915082860187848660071b8901011115614e3457600080fd5b6000805b86811015614eaf57608080848c031215614e50578283fd5b614e58615aee565b8435614e6381615e13565b815284880135614e7281615e21565b81890152604085810135614e8581615e31565b90820152606085810135614e9881615dfe565b908201528652948601949290920191600101614e38565b509198975050505050505050565b8035614ec881615e13565b919050565b8051614ec881615dfe565b60008083601f840112614eea57600080fd5b50813567ffffffffffffffff811115614f0257600080fd5b602083019150836020828501011115614f1a57600080fd5b9250929050565b600060c08284031215614f3357600080fd5b50919050565b600060208284031215614f4b57600080fd5b813561125a81615dfe565b600060208284031215614f6857600080fd5b815161125a81615dfe565b600080600080600080600080610220898b031215614f9057600080fd5b8835614f9b81615dfe565b975060208901359650604089013567ffffffffffffffff80821115614fbf57600080fd5b614fcb8c838d01614ed8565b9098509650869150614fe08c60608d01614f21565b9550614ff08c6101208d01614f21565b94506101e08b013591508082111561500757600080fd5b6150138c838d01614d01565b93506102008b013591508082111561502a57600080fd5b506150378b828c01614df3565b9150509295985092959890939650565b60008060006060848603121561505c57600080fd5b833561506781615dfe565b95602085013595506040909401359392505050565b60008060008060008060c0878903121561509557600080fd5b86356150a081615dfe565b955060208701359450604087013593506060870135925060808701356150c581615dfe565b915060a08701356150d581615e13565b809150509295509295509295565b600060208083850312156150f657600080fd5b825167ffffffffffffffff81111561510d57600080fd5b8301601f8101851361511e57600080fd5b805161512c614d2282615b66565b8181528381019083850160c0808502860187018a101561514b57600080fd5b60009550855b858110156151eb5781838c031215615167578687fd5b61516f615ac5565b835161517a81615e13565b81528389015161518981615e21565b818a015260408481015161519c81615e31565b908201526060848101516151af81615dfe565b908201526080848101516151c281615dfe565b9082015260a0848101516151d581615e45565b9082015285529387019391810191600101615151565b50919998505050505050505050565b6000602080838503121561520d57600080fd5b825167ffffffffffffffff81111561522457600080fd5b8301601f8101851361523557600080fd5b8051615243614d2282615b66565b80828252848201915084840188868560071b870101111561526357600080fd5b60009450845b848110156152e057608080838c031215615281578687fd5b615289615aee565b835161529481615e13565b8152838901516152a381615e21565b818a01526040848101516152b681615e31565b908201526060848101516152c981615dfe565b908201528552938701939190910190600101615269565b509098975050505050505050565b60006020828403121561530057600080fd5b815161125a81615e13565b60006020828403121561531d57600080fd5b5051919050565b60006020828403121561533657600080fd5b81516004811061125a57600080fd5b600060c0828403121561535757600080fd5b60405160c0810181811067ffffffffffffffff8211171561537a5761537a615dcf565b806040525082358152602083013560208201526040830135604082015260608301356153a581615e13565b606082015260808301356153b881615e13565b608082015260a08301356153cb81615dfe565b60a08201529392505050565b600061020082840312156153ea57600080fd5b6153f2615b11565b825181526020830151602082015260408301516040820152606083015160608201526080830151608082015260a083015160a082015260c083015160c082015261543e60e08401614ecd565b60e0820152610100838101519082015261012080840151908201526101408084015190820152610160808401519082015261018080840151908201526101a080840151908201526101c080840151908201526101e0928301519281019290925250919050565b6000602082840312156154b657600080fd5b5035919050565b6000806000806000608086880312156154d557600080fd5b8535945060208601356154e781615dfe565b9350604086013567ffffffffffffffff81111561550357600080fd5b61550f88828901614ed8565b909450925050606086013561552381615e13565b809150509295509295909350565b6000806040838503121561554457600080fd5b82359150602083013561555681615dfe565b809150509250929050565b60008060008060006101e0868803121561557a57600080fd5b8535945061558b8760208801614f21565b935061559a8760e08801614f21565b92506101a086013567ffffffffffffffff808211156155b857600080fd5b6155c489838a01614d01565b93506101c08801359150808211156155db57600080fd5b506155e888828901614df3565b9150509295509295909350565b6000806040838503121561560857600080fd5b50508035926020909101359150565b600080600080600060a0868803121561562f57600080fd5b853594506020808701359450604087013561564981615dfe565b9350606087013567ffffffffffffffff8082111561566657600080fd5b818901915089601f83011261567a57600080fd5b81358181111561568c5761568c615dcf565b61569e84601f19601f84011601615b35565b91508082528a848285010111156156b457600080fd5b80848401858401376000848284010152508094505050506156d760808701614ebd565b90509295509295909350565b600080600080608085870312156156f957600080fd5b5050823594602084013594506040840135936060013592509050565b6000815180845260005b8181101561573b5760208185018101518683018201520161571f565b8181111561574d576000602083870101525b50601f01601f19169290920160200192915050565b60006001600160a01b03808816835286602084015260806040840152846080840152848660a0850137600060a0868501015260a0601f19601f87011684010191508084166060840152509695505050505050565b8481526001600160a01b03841660208201526080604082015260006157de6080830185615715565b9050821515606083015295945050505050565b610100810161585b828680511515825261ffff602082015116602083015265ffffffffffff604082015116604083015260608101516001600160a01b038082166060850152806080840151166080850152505066ffffffffffffff60a08201511660a08301525050565b8360c08301526001600160a01b03831660e0830152949350505050565b8381526060602082015260006158916060830185615715565b90506001600160a01b0383166040830152949350505050565b60006101408201905086825285356020830152602086013560408301526040860135606083015260608601356080830152608086013560a083015260a08601356158f381615dfe565b6001600160a01b031660c083015260e082019490945261010081019290925215156101209091015292915050565b6000606082018583526020858185015260606040850152818551808452608086019150828701935060005b818110156152e0576159ba83865180511515825261ffff602082015116602083015265ffffffffffff604082015116604083015260608101516001600160a01b038082166060850152806080840151166080850152505066ffffffffffffff60a08201511660a08301525050565b9383019360c0929092019160010161594c565b600060608201858352602085818501526060604085015281855180845260809350838601915082870160005b828110156151eb57615a4484835180511515825261ffff602082015116602083015265ffffffffffff60408201511660408301526001600160a01b0360608201511660608301525050565b92850192908401906001016159f9565b85815284602082015283604082015260a060608201526000615a7960a0830185615715565b90506001600160a01b03831660808301529695505050505050565b66ffffffffffffff851681526001600160a01b03841660208201526080604082015260006157de6080830185615715565b60405160c0810167ffffffffffffffff81118282101715615ae857615ae8615dcf565b60405290565b6040516080810167ffffffffffffffff81118282101715615ae857615ae8615dcf565b604051610200810167ffffffffffffffff81118282101715615ae857615ae8615dcf565b604051601f8201601f1916810167ffffffffffffffff81118282101715615b5e57615b5e615dcf565b604052919050565b600067ffffffffffffffff821115615b8057615b80615dcf565b5060051b60200190565b6000808212827f7fffffffffffffffffffffffffffffffffffffffffffffffffffffffffffffff03841381151615615bc457615bc4615d13565b827f8000000000000000000000000000000000000000000000000000000000000000038412811615615bf857615bf8615d13565b50500190565b60008219821115615c1157615c11615d13565b500190565b6000808312837f800000000000000000000000000000000000000000000000000000000000000001831281151615615c5057615c50615d13565b837f7fffffffffffffffffffffffffffffffffffffffffffffffffffffffffffffff018313811615615c8457615c84615d13565b50500390565b600082821015615c9c57615c9c615d13565b500390565b60007fffffffffffffffffffffffffffffffffffffffffffffffffffffffffffffffff821415615cd357615cd3615d13565b5060010190565b60007f8000000000000000000000000000000000000000000000000000000000000000821415615d0c57615d0c615d13565b5060000390565b7f4e487b7100000000000000000000000000000000000000000000000000000000600052601160045260246000fd5b7f4e487b7100000000000000000000000000000000000000000000000000000000600052601260045260246000fd5b7f4e487b7100000000000000000000000000000000000000000000000000000000600052602160045260246000fd5b7f4e487b7100000000000000000000000000000000000000000000000000000000600052603260045260246000fd5b7f4e487b7100000000000000000000000000000000000000000000000000000000600052604160045260246000fd5b6001600160a01b038116811461365257600080fd5b801515811461365257600080fd5b61ffff8116811461365257600080fd5b65ffffffffffff8116811461365257600080fd5b66ffffffffffffff8116811461365257600080fdfea264697066735822122008e49f5d7de6da36e8d5ce5d5e33a164a41b4263dda797b23f79a0e71b9ce50264736f6c63430008060033",
  "devdoc": {
    "details": " A project can transfer its funds, along with the power to reconfigure and mint/burn their Tickets, from this contract to another allowed terminal contract at any time.",
    "kind": "dev",
    "methods": {
      "addToBalance(uint256)": {
        "params": {
          "_projectId": "The ID of the project to which the funds received belong."
        }
      },
      "allowMigration(address)": {
        "details": "Only governance can add a contract to the migration allow list.",
        "params": {
          "_contract": "The contract to allow."
        }
      },
      "claimableOverflowOf(address,uint256,uint256)": {
        "details": "The _account must have at least _count tickets for the specified project.If there is a funding cycle reconfiguration ballot open for the project, the project's current bonding curve is bypassed.No more than the overflow can be claimable.",
        "params": {
          "_account": "The address to get an amount for.",
          "_count": "The number of Tickets that would be redeemed to get the resulting amount.",
          "_projectId": "The ID of the project to get a claimable amount for."
        },
        "returns": {
          "_claimableOverflow": "amount The amount of tokens that can be claimed."
        }
      },
      "configure(uint256,(uint256,uint256,uint256,uint256,uint256,address),(uint256,uint256,uint256,bool,bool,address),(bool,uint16,uint48,address,address,uint56)[],(bool,uint16,uint48,address)[])": {
        "details": "Only a project's owner or a designated operator can configure its funding cycles._properties.target The amount that the project wants to receive in this funding stage. Sent as a wad._properties.currency The currency of the `target`. Send 0 for ETH or 1 for USD._properties.duration The duration of the funding stage for which the `target` amount is needed. Measured in days. Send 0 for a boundless cycle reconfigurable at any time._properties.cycleLimit The number of cycles that this configuration should last for before going back to the last permanent. This has no effect for a project's first funding cycle._properties.discountRate A number from 0-200 indicating how valuable a contribution to this funding stage is compared to the project's previous funding stage. If it's 200, each funding stage will have equal weight. If the number is 180, a contribution to the next funding stage will only give you 90% of tickets given to a contribution of the same amount during the current funding stage. If the number is 0, an non-recurring funding stage will get made._properties.ballot The new ballot that will be used to approve subsequent reconfigurations._metadata.reservedRate A number from 0-200 indicating the percentage of each contribution's tickets that will be reserved for the project owner._metadata.bondingCurveRate The rate from 0-200 at which a project's Tickets can be redeemed for surplus. The bonding curve formula is https://www.desmos.com/calculator/sp9ru6zbpk where x is _count, o is _currentOverflow, s is _totalSupply, and r is _bondingCurveRate._metadata.reconfigurationBondingCurveRate The bonding curve rate to apply when there is an active ballot.",
        "params": {
          "_metadata": "A struct specifying the TerminalV1 specific params _bondingCurveRate, and _reservedRate.",
          "_projectId": "The ID of the project being reconfigured. ",
          "_properties": "The funding cycle configuration."
        },
        "returns": {
          "_0": "The ID of the funding cycle that was successfully configured."
        }
      },
      "constructor": {
        "params": {
          "_fundingCycles": "A funding cycle configuration store.",
          "_modStore": "A storage for a project's mods.",
          "_operatorStore": "A contract storing operator assignments.",
          "_prices": "A price feed contract to use.",
          "_projects": "A Projects contract which mints ERC-721's that represent project ownership and transfers.",
          "_terminalDirectory": "A directory of a project's current Juicebox terminal to receive payments in.",
          "_ticketBooth": "A contract that manages Ticket printing and redeeming."
        }
      },
      "currentOverflowOf(uint256)": {
        "params": {
          "_projectId": "The ID of the project to get overflow for."
        },
        "returns": {
          "overflow": "The current overflow of funds for the project."
        }
      },
      "deploy(address,bytes32,string,(uint256,uint256,uint256,uint256,uint256,address),(uint256,uint256,uint256,bool,bool,address),(bool,uint16,uint48,address,address,uint56)[],(bool,uint16,uint48,address)[])": {
        "details": "Each operation withing this transaction can be done in sequence separately.Anyone can deploy a project on an owner's behalf._properties.target The amount that the project wants to receive in this funding cycle. Sent as a wad._properties.currency The currency of the `target`. Send 0 for ETH or 1 for USD._properties.duration The duration of the funding stage for which the `target` amount is needed. Measured in days. Send 0 for a boundless cycle reconfigurable at any time._properties.cycleLimit The number of cycles that this configuration should last for before going back to the last permanent. This has no effect for a project's first funding cycle._properties.discountRate A number from 0-200 indicating how valuable a contribution to this funding stage is compared to the project's previous funding stage. If it's 200, each funding stage will have equal weight. If the number is 180, a contribution to the next funding stage will only give you 90% of tickets given to a contribution of the same amount during the current funding stage. If the number is 0, an non-recurring funding stage will get made._properties.ballot The new ballot that will be used to approve subsequent reconfigurations._metadata.reservedRate A number from 0-200 indicating the percentage of each contribution's tickets that will be reserved for the project owner._metadata.bondingCurveRate The rate from 0-200 at which a project's Tickets can be redeemed for surplus. The bonding curve formula is https://www.desmos.com/calculator/sp9ru6zbpk where x is _count, o is _currentOverflow, s is _totalSupply, and r is _bondingCurveRate._metadata.reconfigurationBondingCurveRate The bonding curve rate to apply when there is an active ballot.",
        "params": {
          "_handle": "The project's unique handle.",
          "_metadata": "A struct specifying the TerminalV1 specific params _bondingCurveRate, and _reservedRate.",
          "_owner": "The address that will own the project.",
          "_payoutMods": "Any payout mods to set.",
          "_properties": "The funding cycle configuration.",
          "_ticketMods": "Any ticket mods to set.",
          "_uri": "A link to information about the project and this funding cycle."
        }
      },
      "migrate(uint256,address)": {
        "details": "Only a project's owner or a designated operator can migrate it.",
        "params": {
          "_projectId": "The ID of the project being migrated.",
          "_to": "The contract that will gain the project's funds."
        }
      },
      "owner()": {
        "details": "Returns the address of the current owner."
      },
      "pay(uint256,address,string,bool)": {
        "details": " Print's the project's tickets proportional to the amount of the contribution. The msg.value is the amount of the contribution in wei.",
        "params": {
          "_beneficiary": "The address to print Tickets for. ",
          "_memo": "A memo that will be included in the published event.",
          "_preferUnstakedTickets": "Whether ERC20's should be unstaked automatically if they have been issued.",
          "_projectId": "The ID of the project being contribute to."
        },
        "returns": {
          "_0": "The ID of the funding cycle that the payment was made during."
        }
      },
      "printReservedTickets(uint256)": {
        "params": {
          "_projectId": "The ID of the project to which the reserved tickets belong."
        },
        "returns": {
          "amount": "The amount of tickets that are being printed."
        }
      },
      "printTickets(uint256,uint256,address,string,bool)": {
        "details": "Only a project's owner or a designated operator can print tickets.",
        "params": {
          "_amount": "The amount of tickets to print.",
          "_beneficiary": "The address to send the printed tickets to.",
          "_memo": "A memo to leave with the printing.",
          "_preferUnstakedTickets": "If there is a preference to unstake the printed tickets.",
          "_projectId": "The ID of the project to print tickets for."
        }
      },
      "redeem(address,uint256,uint256,uint256,address,bool)": {
        "details": "Only a ticket's holder or a designated operator can redeem it.",
        "params": {
          "_account": "The account to redeem tickets for.",
          "_beneficiary": "The address to send the ETH to.",
          "_count": "The number of Tickets to redeem.",
          "_minReturnedWei": "The minimum amount of Wei expected in return.",
          "_preferUnstaked": "If the preference is to redeem tickets that have been converted to ERC-20s.",
          "_projectId": "The ID of the project to which the Tickets being redeemed belong."
        },
        "returns": {
          "amount": "The amount of ETH that the tickets were redeemed for."
        }
      },
      "renounceOwnership()": {
        "details": "Leaves the contract without owner. It will not be possible to call `onlyOwner` functions anymore. Can only be called by the current owner. NOTE: Renouncing ownership will leave the contract without an owner, thereby removing any functionality that is only available to the owner."
      },
      "reservedTicketBalanceOf(uint256,uint256)": {
        "params": {
          "_projectId": "The ID of the project to get overflow for.",
          "_reservedRate": "The reserved rate to use to make the calculation."
        },
        "returns": {
          "_0": "amount overflow The current overflow of funds for the project."
        }
      },
      "setFee(uint256)": {
        "details": "Only funding cycle reconfigurations after the new fee is set will use the new fee. All future funding cycles based on configurations made in the past will use the fee that was set at the time of the configuration.Only the owner can set a new fee.The max fee is 5%.",
        "params": {
          "_fee": "The new fee percent. Out of 200."
        }
      },
      "tap(uint256,uint256,uint256,uint256)": {
        "details": "Anyone can tap funds on a project's behalf.",
        "params": {
          "_amount": "The amount being tapped, in the funding cycle's currency.",
          "_currency": "The expected currency being tapped.",
          "_minReturnedWei": "The minimum number of wei that the amount should be valued at.",
          "_projectId": "The ID of the project to which the funding cycle being tapped belongs."
        },
        "returns": {
          "_0": "The ID of the funding cycle that was tapped."
        }
      },
      "transferOwnership(address)": {
        "details": "Transfers ownership of the contract to a new account (`newOwner`). Can only be called by the current owner."
      }
    },
    "version": 1
  },
  "userdoc": {
    "errors": {
      "PRBMath__MulDivFixedPointOverflow(uint256)": [
        {
          "notice": "Emitted when the result overflows uint256."
        }
      ],
      "PRBMath__MulDivOverflow(uint256,uint256)": [
        {
          "notice": "Emitted when the result overflows uint256."
        }
      ]
    },
    "kind": "user",
    "methods": {
      "addToBalance(uint256)": {
        "notice": " Receives and allocates funds belonging to the specified project."
      },
      "allowMigration(address)": {
        "notice": " Adds to the contract addresses that projects can migrate their Tickets to."
      },
      "balanceOf(uint256)": {
        "notice": "The amount of ETH that each project is responsible for."
      },
      "claimableOverflowOf(address,uint256,uint256)": {
        "notice": " The amount of tokens that can be claimed by the given address."
      },
      "configure(uint256,(uint256,uint256,uint256,uint256,uint256,address),(uint256,uint256,uint256,bool,bool,address),(bool,uint16,uint48,address,address,uint56)[],(bool,uint16,uint48,address)[])": {
        "notice": " Configures the properties of the current funding cycle if the project hasn't distributed tickets yet, or sets the properties of the proposed funding cycle that will take effect once the current one expires if it is approved by the current funding cycle's ballot."
      },
      "currentOverflowOf(uint256)": {
        "notice": " Gets the current overflowed amount for a specified project."
      },
      "deploy(address,bytes32,string,(uint256,uint256,uint256,uint256,uint256,address),(uint256,uint256,uint256,bool,bool,address),(bool,uint16,uint48,address,address,uint56)[],(bool,uint16,uint48,address)[])": {
        "notice": " Deploys a project. This will mint an ERC-721 into the `_owner`'s account, configure a first funding cycle, and set up any mods."
      },
      "fee()": {
        "notice": "The percent fee the Juicebox project takes from tapped amounts. Out of 200."
      },
      "fundingCycles()": {
        "notice": "The contract storing all funding cycle configurations."
      },
      "migrate(uint256,address)": {
        "notice": " Allows a project owner to migrate its funds and operations to a new contract."
      },
      "modStore()": {
        "notice": "The contract that stores mods for each project."
      },
      "operatorStore()": {
        "notice": "A contract storing operator assignments."
      },
      "pay(uint256,address,string,bool)": {
        "notice": " Contribute ETH to a project."
      },
      "prices()": {
        "notice": "The prices feeds."
      },
      "printReservedTickets(uint256)": {
        "notice": " Prints all reserved tickets for a project."
      },
      "printTickets(uint256,uint256,address,string,bool)": {
        "notice": " Allows a project to print tickets for a specified beneficiary."
      },
      "projects()": {
        "notice": "The Projects contract which mints ERC-721's that represent project ownership and transfers."
      },
      "redeem(address,uint256,uint256,uint256,address,bool)": {
        "notice": " Addresses can redeem their Tickets to claim the project's overflowed ETH."
      },
      "reservedTicketBalanceOf(uint256,uint256)": {
        "notice": " Gets the amount of reserved tickets that a project has."
      },
      "setFee(uint256)": {
        "notice": " Allow the admin to change the fee. "
      },
      "tap(uint256,uint256,uint256,uint256)": {
        "notice": " Tap into funds that have been contributed to a project's current funding cycle."
      },
      "terminalDirectory()": {
        "notice": "The directory of terminals."
      },
      "ticketBooth()": {
        "notice": "The contract that manages Ticket printing and redeeming."
      }
    },
    "notice": "             This contract manages the Juicebox ecosystem, serves as a payment terminal, and custodies all funds.",
    "version": 1
  },
  "storageLayout": {
    "storage": [
      {
        "astId": 160,
        "contract": "contracts/TerminalV1_1.sol:TerminalV1_1",
        "label": "_status",
        "offset": 0,
        "slot": "0",
        "type": "t_uint256"
      },
      {
        "astId": 53,
        "contract": "contracts/TerminalV1_1.sol:TerminalV1_1",
        "label": "_owner",
        "offset": 0,
        "slot": "1",
        "type": "t_address"
      },
      {
        "astId": 11344,
        "contract": "contracts/TerminalV1_1.sol:TerminalV1_1",
        "label": "_processedTicketTrackerOf",
        "offset": 0,
        "slot": "2",
        "type": "t_mapping(t_uint256,t_int256)"
      },
      {
        "astId": 11380,
        "contract": "contracts/TerminalV1_1.sol:TerminalV1_1",
        "label": "balanceOf",
        "offset": 0,
        "slot": "3",
        "type": "t_mapping(t_uint256,t_uint256)"
      },
      {
        "astId": 11385,
        "contract": "contracts/TerminalV1_1.sol:TerminalV1_1",
        "label": "fee",
        "offset": 0,
        "slot": "4",
        "type": "t_uint256"
      },
      {
        "astId": 11391,
        "contract": "contracts/TerminalV1_1.sol:TerminalV1_1",
        "label": "migrationIsAllowed",
        "offset": 0,
        "slot": "5",
        "type": "t_mapping(t_contract(ITerminal)16578,t_bool)"
      }
    ],
    "types": {
      "t_address": {
        "encoding": "inplace",
        "label": "address",
        "numberOfBytes": "20"
      },
      "t_bool": {
        "encoding": "inplace",
        "label": "bool",
        "numberOfBytes": "1"
      },
      "t_contract(ITerminal)16578": {
        "encoding": "inplace",
        "label": "contract ITerminal",
        "numberOfBytes": "20"
      },
      "t_int256": {
        "encoding": "inplace",
        "label": "int256",
        "numberOfBytes": "32"
      },
      "t_mapping(t_contract(ITerminal)16578,t_bool)": {
        "encoding": "mapping",
        "key": "t_contract(ITerminal)16578",
        "label": "mapping(contract ITerminal => bool)",
        "numberOfBytes": "32",
        "value": "t_bool"
      },
      "t_mapping(t_uint256,t_int256)": {
        "encoding": "mapping",
        "key": "t_uint256",
        "label": "mapping(uint256 => int256)",
        "numberOfBytes": "32",
        "value": "t_int256"
      },
      "t_mapping(t_uint256,t_uint256)": {
        "encoding": "mapping",
        "key": "t_uint256",
        "label": "mapping(uint256 => uint256)",
        "numberOfBytes": "32",
        "value": "t_uint256"
      },
      "t_uint256": {
        "encoding": "inplace",
        "label": "uint256",
        "numberOfBytes": "32"
      }
    }
  }
}