{
  "address": "0x981c8ECD009E3E84eE1fF99266BF1461a12e5c68",
  "abi": [
    {
      "inputs": [
        {
          "internalType": "contract IProjects",
          "name": "_projects",
          "type": "address"
        },
        {
          "internalType": "contract IFundingCycles",
          "name": "_fundingCycles",
          "type": "address"
        },
        {
          "internalType": "contract ITicketBooth",
          "name": "_ticketBooth",
          "type": "address"
        },
        {
          "internalType": "contract IOperatorStore",
          "name": "_operatorStore",
          "type": "address"
        },
        {
          "internalType": "contract IModStore",
          "name": "_modStore",
          "type": "address"
        },
        {
          "internalType": "contract IPrices",
          "name": "_prices",
          "type": "address"
        },
        {
          "internalType": "contract ITerminalDirectory",
          "name": "_terminalDirectory",
          "type": "address"
        },
        {
          "internalType": "address",
          "name": "_owner",
          "type": "address"
        }
      ],
      "stateMutability": "nonpayable",
      "type": "constructor"
    },
    {
      "inputs": [
        {
          "internalType": "uint256",
          "name": "prod1",
          "type": "uint256"
        }
      ],
      "name": "PRBMath__MulDivFixedPointOverflow",
      "type": "error"
    },
    {
      "inputs": [
        {
          "internalType": "uint256",
          "name": "prod1",
          "type": "uint256"
        },
        {
          "internalType": "uint256",
          "name": "denominator",
          "type": "uint256"
        }
      ],
      "name": "PRBMath__MulDivOverflow",
      "type": "error"
    },
    {
      "anonymous": false,
      "inputs": [
        {
          "indexed": true,
          "internalType": "uint256",
          "name": "projectId",
          "type": "uint256"
        },
        {
          "indexed": false,
          "internalType": "uint256",
          "name": "value",
          "type": "uint256"
        },
        {
          "indexed": false,
          "internalType": "address",
          "name": "caller",
          "type": "address"
        }
      ],
      "name": "AddToBalance",
      "type": "event"
    },
    {
      "anonymous": false,
      "inputs": [
        {
          "indexed": false,
          "internalType": "contract ITerminal",
          "name": "allowed",
          "type": "address"
        }
      ],
      "name": "AllowMigration",
      "type": "event"
    },
    {
      "anonymous": false,
      "inputs": [
        {
          "indexed": true,
          "internalType": "uint256",
          "name": "fundingCycleId",
          "type": "uint256"
        },
        {
          "indexed": true,
          "internalType": "uint256",
          "name": "projectId",
          "type": "uint256"
        },
        {
          "indexed": false,
          "internalType": "address",
          "name": "caller",
          "type": "address"
        }
      ],
      "name": "Configure",
      "type": "event"
    },
    {
      "anonymous": false,
      "inputs": [
        {
          "indexed": false,
          "internalType": "uint256",
          "name": "amount",
          "type": "uint256"
        }
      ],
      "name": "Deposit",
      "type": "event"
    },
    {
      "anonymous": false,
      "inputs": [
        {
          "indexed": true,
          "internalType": "uint256",
          "name": "fundingCycleId",
          "type": "uint256"
        },
        {
          "indexed": true,
          "internalType": "uint256",
          "name": "projectId",
          "type": "uint256"
        },
        {
          "components": [
            {
              "internalType": "bool",
              "name": "preferUnstaked",
              "type": "bool"
            },
            {
              "internalType": "uint16",
              "name": "percent",
              "type": "uint16"
            },
            {
              "internalType": "uint48",
              "name": "lockedUntil",
              "type": "uint48"
            },
            {
              "internalType": "address payable",
              "name": "beneficiary",
              "type": "address"
            },
            {
              "internalType": "contract IModAllocator",
              "name": "allocator",
              "type": "address"
            },
            {
              "internalType": "uint56",
              "name": "projectId",
              "type": "uint56"
            }
          ],
          "indexed": false,
          "internalType": "struct PayoutMod",
          "name": "mod",
          "type": "tuple"
        },
        {
          "indexed": false,
          "internalType": "uint256",
          "name": "modCut",
          "type": "uint256"
        },
        {
          "indexed": false,
          "internalType": "address",
          "name": "caller",
          "type": "address"
        }
      ],
      "name": "DistributeToPayoutMod",
      "type": "event"
    },
    {
      "anonymous": false,
      "inputs": [
        {
          "indexed": true,
          "internalType": "uint256",
          "name": "fundingCycleId",
          "type": "uint256"
        },
        {
          "indexed": true,
          "internalType": "uint256",
          "name": "projectId",
          "type": "uint256"
        },
        {
          "components": [
            {
              "internalType": "bool",
              "name": "preferUnstaked",
              "type": "bool"
            },
            {
              "internalType": "uint16",
              "name": "percent",
              "type": "uint16"
            },
            {
              "internalType": "uint48",
              "name": "lockedUntil",
              "type": "uint48"
            },
            {
              "internalType": "address payable",
              "name": "beneficiary",
              "type": "address"
            }
          ],
          "indexed": false,
          "internalType": "struct TicketMod",
          "name": "mod",
          "type": "tuple"
        },
        {
          "indexed": false,
          "internalType": "uint256",
          "name": "modCut",
          "type": "uint256"
        },
        {
          "indexed": false,
          "internalType": "address",
          "name": "caller",
          "type": "address"
        }
      ],
      "name": "DistributeToTicketMod",
      "type": "event"
    },
    {
      "anonymous": false,
      "inputs": [
        {
          "indexed": false,
          "internalType": "uint256",
          "name": "target",
          "type": "uint256"
        }
      ],
      "name": "EnsureTargetLocalWei",
      "type": "event"
    },
    {
      "anonymous": false,
      "inputs": [
        {
          "indexed": true,
          "internalType": "uint256",
          "name": "projectId",
          "type": "uint256"
        },
        {
          "indexed": true,
          "internalType": "contract ITerminal",
          "name": "to",
          "type": "address"
        },
        {
          "indexed": false,
          "internalType": "uint256",
          "name": "_amount",
          "type": "uint256"
        },
        {
          "indexed": false,
          "internalType": "address",
          "name": "caller",
          "type": "address"
        }
      ],
      "name": "Migrate",
      "type": "event"
    },
    {
      "anonymous": false,
      "inputs": [
        {
          "indexed": true,
          "internalType": "address",
          "name": "previousOwner",
          "type": "address"
        },
        {
          "indexed": true,
          "internalType": "address",
          "name": "newOwner",
          "type": "address"
        }
      ],
      "name": "OwnershipTransferred",
      "type": "event"
    },
    {
      "anonymous": false,
      "inputs": [
        {
          "indexed": true,
          "internalType": "uint256",
          "name": "fundingCycleId",
          "type": "uint256"
        },
        {
          "indexed": true,
          "internalType": "uint256",
          "name": "projectId",
          "type": "uint256"
        },
        {
          "indexed": true,
          "internalType": "address",
          "name": "beneficiary",
          "type": "address"
        },
        {
          "indexed": false,
          "internalType": "uint256",
          "name": "amount",
          "type": "uint256"
        },
        {
          "indexed": false,
          "internalType": "uint256",
          "name": "beneficiaryTokens",
          "type": "uint256"
        },
        {
          "indexed": false,
          "internalType": "uint256",
          "name": "totalTokens",
          "type": "uint256"
        },
        {
          "indexed": false,
          "internalType": "string",
          "name": "note",
          "type": "string"
        },
        {
          "indexed": false,
          "internalType": "address",
          "name": "caller",
          "type": "address"
        }
      ],
      "name": "Pay",
      "type": "event"
    },
    {
      "anonymous": false,
      "inputs": [
        {
          "indexed": true,
          "internalType": "uint256",
          "name": "fundingCycleId",
          "type": "uint256"
        },
        {
          "indexed": true,
          "internalType": "uint256",
          "name": "projectId",
          "type": "uint256"
        },
        {
          "indexed": true,
          "internalType": "address",
          "name": "beneficiary",
          "type": "address"
        },
        {
          "indexed": false,
          "internalType": "uint256",
          "name": "count",
          "type": "uint256"
        },
        {
          "indexed": false,
          "internalType": "uint256",
          "name": "beneficiaryTicketAmount",
          "type": "uint256"
        },
        {
          "indexed": false,
          "internalType": "address",
          "name": "caller",
          "type": "address"
        }
      ],
      "name": "PrintReserveTickets",
      "type": "event"
    },
    {
      "anonymous": false,
      "inputs": [
        {
          "indexed": true,
          "internalType": "uint256",
          "name": "projectId",
          "type": "uint256"
        },
        {
          "indexed": true,
          "internalType": "address",
          "name": "beneficiary",
          "type": "address"
        },
        {
          "indexed": false,
          "internalType": "uint256",
          "name": "amount",
          "type": "uint256"
        },
        {
          "indexed": false,
          "internalType": "string",
          "name": "memo",
          "type": "string"
        },
        {
          "indexed": false,
          "internalType": "address",
          "name": "caller",
          "type": "address"
        }
      ],
      "name": "PrintTickets",
      "type": "event"
    },
    {
      "anonymous": false,
      "inputs": [
        {
          "indexed": true,
          "internalType": "address",
          "name": "holder",
          "type": "address"
        },
        {
          "indexed": true,
          "internalType": "address",
          "name": "beneficiary",
          "type": "address"
        },
        {
          "indexed": true,
          "internalType": "uint256",
          "name": "_projectId",
          "type": "uint256"
        },
        {
          "indexed": false,
          "internalType": "uint256",
          "name": "amount",
          "type": "uint256"
        },
        {
          "indexed": false,
          "internalType": "uint256",
          "name": "returnAmount",
          "type": "uint256"
        },
        {
          "indexed": false,
          "internalType": "address",
          "name": "caller",
          "type": "address"
        }
      ],
      "name": "Redeem",
      "type": "event"
    },
    {
      "anonymous": false,
      "inputs": [
        {
          "indexed": false,
          "internalType": "uint256",
          "name": "_amount",
          "type": "uint256"
        }
      ],
      "name": "SetFee",
      "type": "event"
    },
    {
      "anonymous": false,
      "inputs": [
        {
          "indexed": false,
          "internalType": "uint256",
          "name": "amount",
          "type": "uint256"
        }
      ],
      "name": "SetTargetLocalWei",
      "type": "event"
    },
    {
      "anonymous": false,
      "inputs": [
        {
          "indexed": false,
          "internalType": "contract IYielder",
          "name": "newYielder",
          "type": "address"
        }
      ],
      "name": "SetYielder",
      "type": "event"
    },
    {
      "anonymous": false,
      "inputs": [
        {
          "indexed": true,
          "internalType": "uint256",
          "name": "fundingCycleId",
          "type": "uint256"
        },
        {
          "indexed": true,
          "internalType": "uint256",
          "name": "projectId",
          "type": "uint256"
        },
        {
          "indexed": true,
          "internalType": "address",
          "name": "beneficiary",
          "type": "address"
        },
        {
          "indexed": false,
          "internalType": "uint256",
          "name": "amount",
          "type": "uint256"
        },
        {
          "indexed": false,
          "internalType": "uint256",
          "name": "currency",
          "type": "uint256"
        },
        {
          "indexed": false,
          "internalType": "uint256",
          "name": "netTransferAmount",
          "type": "uint256"
        },
        {
          "indexed": false,
          "internalType": "uint256",
          "name": "beneficiaryTransferAmount",
          "type": "uint256"
        },
        {
          "indexed": false,
          "internalType": "uint256",
          "name": "govFeeAmount",
          "type": "uint256"
        },
        {
          "indexed": false,
          "internalType": "address",
          "name": "caller",
          "type": "address"
        }
      ],
      "name": "Tap",
      "type": "event"
    },
    {
      "inputs": [
        {
          "internalType": "uint256",
          "name": "_projectId",
          "type": "uint256"
        }
      ],
      "name": "addToBalance",
      "outputs": [],
      "stateMutability": "payable",
      "type": "function"
    },
    {
      "inputs": [
        {
          "internalType": "contract ITerminal",
          "name": "_contract",
          "type": "address"
        }
      ],
      "name": "allowMigration",
      "outputs": [],
      "stateMutability": "nonpayable",
      "type": "function"
    },
    {
      "inputs": [
        {
          "internalType": "uint256",
          "name": "",
          "type": "uint256"
        }
      ],
      "name": "balanceOf",
      "outputs": [
        {
          "internalType": "uint256",
          "name": "",
          "type": "uint256"
        }
      ],
      "stateMutability": "view",
      "type": "function"
    },
    {
      "inputs": [
        {
          "internalType": "uint256",
          "name": "_projectId",
          "type": "uint256"
        }
      ],
      "name": "burnFromDeadAddress",
      "outputs": [],
      "stateMutability": "nonpayable",
      "type": "function"
    },
    {
      "inputs": [
        {
          "internalType": "address",
          "name": "_account",
          "type": "address"
        },
        {
          "internalType": "uint256",
          "name": "_projectId",
          "type": "uint256"
        },
        {
          "internalType": "uint256",
          "name": "_count",
          "type": "uint256"
        }
      ],
      "name": "claimableOverflowOf",
      "outputs": [
        {
          "internalType": "uint256",
          "name": "_claimableOverflow",
          "type": "uint256"
        }
      ],
      "stateMutability": "view",
      "type": "function"
    },
    {
      "inputs": [
        {
          "internalType": "uint256",
          "name": "_projectId",
          "type": "uint256"
        },
        {
          "components": [
            {
              "internalType": "uint256",
              "name": "target",
              "type": "uint256"
            },
            {
              "internalType": "uint256",
              "name": "currency",
              "type": "uint256"
            },
            {
              "internalType": "uint256",
              "name": "duration",
              "type": "uint256"
            },
            {
              "internalType": "uint256",
              "name": "cycleLimit",
              "type": "uint256"
            },
            {
              "internalType": "uint256",
              "name": "discountRate",
              "type": "uint256"
            },
            {
              "internalType": "contract IFundingCycleBallot",
              "name": "ballot",
              "type": "address"
            }
          ],
          "internalType": "struct FundingCycleProperties",
          "name": "_properties",
          "type": "tuple"
        },
        {
          "components": [
            {
              "internalType": "uint256",
              "name": "reservedRate",
              "type": "uint256"
            },
            {
              "internalType": "uint256",
              "name": "bondingCurveRate",
              "type": "uint256"
            },
            {
              "internalType": "uint256",
              "name": "reconfigurationBondingCurveRate",
              "type": "uint256"
            },
            {
              "internalType": "bool",
              "name": "payIsPaused",
              "type": "bool"
            },
            {
              "internalType": "bool",
              "name": "ticketPrintingIsAllowed",
              "type": "bool"
            },
            {
              "internalType": "contract ITreasuryExtension",
              "name": "treasuryExtension",
              "type": "address"
            }
          ],
          "internalType": "struct FundingCycleMetadata2",
          "name": "_metadata",
          "type": "tuple"
        },
        {
          "components": [
            {
              "internalType": "bool",
              "name": "preferUnstaked",
              "type": "bool"
            },
            {
              "internalType": "uint16",
              "name": "percent",
              "type": "uint16"
            },
            {
              "internalType": "uint48",
              "name": "lockedUntil",
              "type": "uint48"
            },
            {
              "internalType": "address payable",
              "name": "beneficiary",
              "type": "address"
            },
            {
              "internalType": "contract IModAllocator",
              "name": "allocator",
              "type": "address"
            },
            {
              "internalType": "uint56",
              "name": "projectId",
              "type": "uint56"
            }
          ],
          "internalType": "struct PayoutMod[]",
          "name": "_payoutMods",
          "type": "tuple[]"
        },
        {
          "components": [
            {
              "internalType": "bool",
              "name": "preferUnstaked",
              "type": "bool"
            },
            {
              "internalType": "uint16",
              "name": "percent",
              "type": "uint16"
            },
            {
              "internalType": "uint48",
              "name": "lockedUntil",
              "type": "uint48"
            },
            {
              "internalType": "address payable",
              "name": "beneficiary",
              "type": "address"
            }
          ],
          "internalType": "struct TicketMod[]",
          "name": "_ticketMods",
          "type": "tuple[]"
        }
      ],
      "name": "configure",
      "outputs": [
        {
          "internalType": "uint256",
          "name": "",
          "type": "uint256"
        }
      ],
      "stateMutability": "nonpayable",
      "type": "function"
    },
    {
      "inputs": [
        {
          "internalType": "uint256",
          "name": "_projectId",
          "type": "uint256"
        }
      ],
      "name": "currentOverflowOf",
      "outputs": [
        {
          "internalType": "uint256",
          "name": "overflow",
          "type": "uint256"
        }
      ],
      "stateMutability": "view",
      "type": "function"
    },
    {
      "inputs": [
        {
          "internalType": "address",
          "name": "_owner",
          "type": "address"
        },
        {
          "internalType": "bytes32",
          "name": "_handle",
          "type": "bytes32"
        },
        {
          "internalType": "string",
          "name": "_uri",
          "type": "string"
        },
        {
          "components": [
            {
              "internalType": "uint256",
              "name": "target",
              "type": "uint256"
            },
            {
              "internalType": "uint256",
              "name": "currency",
              "type": "uint256"
            },
            {
              "internalType": "uint256",
              "name": "duration",
              "type": "uint256"
            },
            {
              "internalType": "uint256",
              "name": "cycleLimit",
              "type": "uint256"
            },
            {
              "internalType": "uint256",
              "name": "discountRate",
              "type": "uint256"
            },
            {
              "internalType": "contract IFundingCycleBallot",
              "name": "ballot",
              "type": "address"
            }
          ],
          "internalType": "struct FundingCycleProperties",
          "name": "_properties",
          "type": "tuple"
        },
        {
          "components": [
            {
              "internalType": "uint256",
              "name": "reservedRate",
              "type": "uint256"
            },
            {
              "internalType": "uint256",
              "name": "bondingCurveRate",
              "type": "uint256"
            },
            {
              "internalType": "uint256",
              "name": "reconfigurationBondingCurveRate",
              "type": "uint256"
            },
            {
              "internalType": "bool",
              "name": "payIsPaused",
              "type": "bool"
            },
            {
              "internalType": "bool",
              "name": "ticketPrintingIsAllowed",
              "type": "bool"
            },
            {
              "internalType": "contract ITreasuryExtension",
              "name": "treasuryExtension",
              "type": "address"
            }
          ],
          "internalType": "struct FundingCycleMetadata2",
          "name": "_metadata",
          "type": "tuple"
        },
        {
          "components": [
            {
              "internalType": "bool",
              "name": "preferUnstaked",
              "type": "bool"
            },
            {
              "internalType": "uint16",
              "name": "percent",
              "type": "uint16"
            },
            {
              "internalType": "uint48",
              "name": "lockedUntil",
              "type": "uint48"
            },
            {
              "internalType": "address payable",
              "name": "beneficiary",
              "type": "address"
            },
            {
              "internalType": "contract IModAllocator",
              "name": "allocator",
              "type": "address"
            },
            {
              "internalType": "uint56",
              "name": "projectId",
              "type": "uint56"
            }
          ],
          "internalType": "struct PayoutMod[]",
          "name": "_payoutMods",
          "type": "tuple[]"
        },
        {
          "components": [
            {
              "internalType": "bool",
              "name": "preferUnstaked",
              "type": "bool"
            },
            {
              "internalType": "uint16",
              "name": "percent",
              "type": "uint16"
            },
            {
              "internalType": "uint48",
              "name": "lockedUntil",
              "type": "uint48"
            },
            {
              "internalType": "address payable",
              "name": "beneficiary",
              "type": "address"
            }
          ],
          "internalType": "struct TicketMod[]",
          "name": "_ticketMods",
          "type": "tuple[]"
        }
      ],
      "name": "deploy",
      "outputs": [],
      "stateMutability": "nonpayable",
      "type": "function"
    },
    {
      "inputs": [],
      "name": "fee",
      "outputs": [
        {
          "internalType": "uint256",
          "name": "",
          "type": "uint256"
        }
      ],
      "stateMutability": "view",
      "type": "function"
    },
    {
      "inputs": [],
      "name": "fundingCycles",
      "outputs": [
        {
          "internalType": "contract IFundingCycles",
          "name": "",
          "type": "address"
        }
      ],
      "stateMutability": "view",
      "type": "function"
    },
    {
      "inputs": [
        {
          "internalType": "uint256",
          "name": "_projectId",
          "type": "uint256"
        },
        {
          "internalType": "contract ITerminal",
          "name": "_to",
          "type": "address"
        }
      ],
      "name": "migrate",
      "outputs": [],
      "stateMutability": "nonpayable",
      "type": "function"
    },
    {
      "inputs": [
        {
          "internalType": "contract ITerminal",
          "name": "",
          "type": "address"
        }
      ],
      "name": "migrationIsAllowed",
      "outputs": [
        {
          "internalType": "bool",
          "name": "",
          "type": "bool"
        }
      ],
      "stateMutability": "view",
      "type": "function"
    },
    {
      "inputs": [],
      "name": "modStore",
      "outputs": [
        {
          "internalType": "contract IModStore",
          "name": "",
          "type": "address"
        }
      ],
      "stateMutability": "view",
      "type": "function"
    },
    {
      "inputs": [],
      "name": "operatorStore",
      "outputs": [
        {
          "internalType": "contract IOperatorStore",
          "name": "",
          "type": "address"
        }
      ],
      "stateMutability": "view",
      "type": "function"
    },
    {
      "inputs": [],
      "name": "owner",
      "outputs": [
        {
          "internalType": "address",
          "name": "",
          "type": "address"
        }
      ],
      "stateMutability": "view",
      "type": "function"
    },
    {
      "inputs": [
        {
          "internalType": "uint256",
          "name": "_projectId",
          "type": "uint256"
        },
        {
          "internalType": "address",
          "name": "_beneficiary",
          "type": "address"
        },
        {
          "internalType": "string",
          "name": "_memo",
          "type": "string"
        },
        {
          "internalType": "bool",
          "name": "_preferUnstakedTickets",
          "type": "bool"
        }
      ],
      "name": "pay",
      "outputs": [
        {
          "internalType": "uint256",
          "name": "",
          "type": "uint256"
        }
      ],
      "stateMutability": "payable",
      "type": "function"
    },
    {
      "inputs": [],
      "name": "prices",
      "outputs": [
        {
          "internalType": "contract IPrices",
          "name": "",
          "type": "address"
        }
      ],
      "stateMutability": "view",
      "type": "function"
    },
    {
      "inputs": [
        {
          "internalType": "uint256",
          "name": "_projectId",
          "type": "uint256"
        }
      ],
      "name": "printReservedTickets",
      "outputs": [
        {
          "internalType": "uint256",
          "name": "amount",
          "type": "uint256"
        }
      ],
      "stateMutability": "nonpayable",
      "type": "function"
    },
    {
      "inputs": [
        {
          "internalType": "uint256",
          "name": "_projectId",
          "type": "uint256"
        },
        {
          "internalType": "uint256",
          "name": "_amount",
          "type": "uint256"
        },
        {
          "internalType": "address",
          "name": "_beneficiary",
          "type": "address"
        },
        {
          "internalType": "string",
          "name": "_memo",
          "type": "string"
        },
        {
          "internalType": "bool",
          "name": "_preferUnstakedTickets",
          "type": "bool"
        }
      ],
      "name": "printTickets",
      "outputs": [],
      "stateMutability": "nonpayable",
      "type": "function"
    },
    {
      "inputs": [],
      "name": "projects",
      "outputs": [
        {
          "internalType": "contract IProjects",
          "name": "",
          "type": "address"
        }
      ],
      "stateMutability": "view",
      "type": "function"
    },
    {
      "inputs": [
        {
          "internalType": "address",
          "name": "_account",
          "type": "address"
        },
        {
          "internalType": "uint256",
          "name": "_projectId",
          "type": "uint256"
        },
        {
          "internalType": "uint256",
          "name": "_count",
          "type": "uint256"
        },
        {
          "internalType": "uint256",
          "name": "_minReturnedWei",
          "type": "uint256"
        },
        {
          "internalType": "address payable",
          "name": "_beneficiary",
          "type": "address"
        },
        {
          "internalType": "bool",
          "name": "_preferUnstaked",
          "type": "bool"
        }
      ],
      "name": "redeem",
      "outputs": [
        {
          "internalType": "uint256",
          "name": "amount",
          "type": "uint256"
        }
      ],
      "stateMutability": "nonpayable",
      "type": "function"
    },
    {
      "inputs": [],
      "name": "renounceOwnership",
      "outputs": [],
      "stateMutability": "nonpayable",
      "type": "function"
    },
    {
      "inputs": [
        {
          "internalType": "uint256",
          "name": "_projectId",
          "type": "uint256"
        },
        {
          "internalType": "uint256",
          "name": "_reservedRate",
          "type": "uint256"
        }
      ],
      "name": "reservedTicketBalanceOf",
      "outputs": [
        {
          "internalType": "uint256",
          "name": "",
          "type": "uint256"
        }
      ],
      "stateMutability": "view",
      "type": "function"
    },
    {
      "inputs": [
        {
          "internalType": "uint256",
          "name": "_fee",
          "type": "uint256"
        }
      ],
      "name": "setFee",
      "outputs": [],
      "stateMutability": "nonpayable",
      "type": "function"
    },
    {
      "inputs": [
        {
          "internalType": "uint256",
          "name": "_projectId",
          "type": "uint256"
        },
        {
          "internalType": "uint256",
          "name": "_amount",
          "type": "uint256"
        },
        {
          "internalType": "uint256",
          "name": "_currency",
          "type": "uint256"
        },
        {
          "internalType": "uint256",
          "name": "_minReturnedWei",
          "type": "uint256"
        }
      ],
      "name": "tap",
      "outputs": [
        {
          "internalType": "uint256",
          "name": "",
          "type": "uint256"
        }
      ],
      "stateMutability": "nonpayable",
      "type": "function"
    },
    {
      "inputs": [],
      "name": "terminalDirectory",
      "outputs": [
        {
          "internalType": "contract ITerminalDirectory",
          "name": "",
          "type": "address"
        }
      ],
      "stateMutability": "view",
      "type": "function"
    },
    {
      "inputs": [],
      "name": "ticketBooth",
      "outputs": [
        {
          "internalType": "contract ITicketBooth",
          "name": "",
          "type": "address"
        }
      ],
      "stateMutability": "view",
      "type": "function"
    },
    {
      "inputs": [
        {
          "internalType": "address",
          "name": "newOwner",
          "type": "address"
        }
      ],
      "name": "transferOwnership",
      "outputs": [],
      "stateMutability": "nonpayable",
      "type": "function"
    }
  ],
  "transactionHash": "0x719e4680ff6c0c7eed978b9f60bbe9a64267340eb68b0cc5aff2349d8114b57d",
  "args": [
    "0x9b5a4053FfBB11cA9cd858AAEE43cc95ab435418",
    "0xf507B2A1dD7439201eb07F11E1d62AfB29216e2E",
    "0xee2eBCcB7CDb34a8A822b589F9E8427C24351bfc",
    "0xab47304D987390E27Ce3BC0fA4Fe31E3A98B0db2",
    "0xB9E4B658298C7A36BdF4C2832042A5D6700c3Ab8",
    "0xa9537Cc42555564206D4E57c0eb6943d56E83A30",
    "0x46C9999A2EDCD5aA177ed7E8af90c68b7d75Ba46",
    "0xAF28bcB48C40dBC86f52D459A6562F658fc94B1e"
  ],
  "solcInputHash": "05c1f0a0e112f0b120e3660168d72443",
  "bytecode": "0x610160604052600a6004553480156200001757600080fd5b5060405162006447380380620064478339810160408190526200003a91620002b1565b606085901b6001600160601b03191660805260016000556200005c336200018e565b6001600160a01b038816158015906200007d57506001600160a01b03871615155b80156200009257506001600160a01b03861615155b8015620000a757506001600160a01b03841615155b8015620000bc57506001600160a01b03831615155b8015620000d157506001600160a01b03821615155b8015620000e657506001600160a01b03811615155b620001385760405162461bcd60e51b815260206004820152601860248201527f5465726d696e616c56313a205a45524f5f41444452455353000000000000000060448201526064015b60405180910390fd5b6001600160601b0319606089811b821660a05288811b821660c05287811b821660e05285811b82166101005284811b82166101205283901b16610140526200018081620001e0565b505050505050505062000388565b600180546001600160a01b038381166001600160a01b0319831681179093556040519116919082907f8be0079c531659141344cd1fd0a4f28419497f9722a3daafe3b4186f6b6457e090600090a35050565b6001546001600160a01b031633146200023c5760405162461bcd60e51b815260206004820181905260248201527f4f776e61626c653a2063616c6c6572206973206e6f7420746865206f776e657260448201526064016200012f565b6001600160a01b038116620002a35760405162461bcd60e51b815260206004820152602660248201527f4f776e61626c653a206e6577206f776e657220697320746865207a65726f206160448201526564647265737360d01b60648201526084016200012f565b620002ae816200018e565b50565b600080600080600080600080610100898b031215620002cf57600080fd5b8851620002dc8162000372565b60208a0151909850620002ef8162000372565b60408a0151909750620003028162000372565b60608a0151909650620003158162000372565b60808a0151909550620003288162000372565b60a08a01519094506200033b8162000372565b60c08a01519093506200034e8162000372565b60e08a0151909250620003618162000372565b809150509295985092959890939650565b6001600160a01b0381168114620002ae57600080fd5b60805160601c60a05160601c60c05160601c60e05160601c6101005160601c6101205160601c6101405160601c615ef86200054f600039600081816102d601528181611e30015281816121060152818161238201528181613ca001528181613d70015261414f015260008181610559015281816108a201526144b001526000818161049101528181611aaa01528181611b5001528181613508015281816135ae01528181613f600152614a1b01526000818161041001528181610d2801528181610fe40152818161167d01528181611f97015281816124390152818161257d01528181612ac401528181612baa01528181612cc201528181612e25015281816130b401528181613a610152614b460152600081816103370152818161077d01528181610e470152818161110d015281816119c30152818161289301528181612d66015281816131a60152818161342101528181613745015261383801526000818161037e01528181610a4001528181610aff0152818161191901528181611bf60152818161263c01528181612fe5015261325e0152600081816104c5015281816112fc015281816113c801528181611cd90152818161271f01526133410152615ef86000f3fe6080604052600436106101b75760003560e01c806392ad35f3116100ec578063af82d3be1161008a578063ddca3f4311610064578063ddca3f431461057b578063ddfd414a14610591578063e0f793db146105b1578063f2fde38b146105d157600080fd5b8063af82d3be146104e7578063b9f1109114610507578063d3419bf31461054757600080fd5b80639c0eee02116100c65780639c0eee02146104325780639cc7f70814610452578063a7c3cca11461047f578063ad007d63146104b357600080fd5b806392ad35f3146103be5780639713eea6146103de5780639b602d60146103fe57600080fd5b806369fe0e2d11610159578063882af66711610133578063882af667146103255780638a19e355146103595780638b79543c1461036c5780638da5cb5b146103a057600080fd5b806369fe0e2d146102a45780636abcf8e3146102c4578063715018a61461031057600080fd5b80633015a5b5116101955780633015a5b514610222578063308a20ad146102425780633cc83ca614610264578063405b84fa1461028457600080fd5b806302c8986f146101bc57806308014ddc146101e25780632e9d3b8f14610202575b600080fd5b6101cf6101ca366004615525565b6105f1565b6040519081526020015b60405180910390f35b3480156101ee57600080fd5b506101cf6101fd36600461574b565b6106eb565b34801561020e57600080fd5b506101cf61021d3660046150af565b610ce5565b34801561022e57600080fd5b506101cf61023d3660046150e4565b611240565b34801561024e57600080fd5b5061026261025d366004614fa1565b611752565b005b34801561027057600080fd5b5061026261027f366004614fdb565b6118fa565b34801561029057600080fd5b5061026261029f366004615599565b611bc7565b3480156102b057600080fd5b506102626102bf36600461550c565b6121b4565b3480156102d057600080fd5b506102f87f000000000000000000000000000000000000000000000000000000000000000081565b6040516001600160a01b0390911681526020016101d9565b34801561031c57600080fd5b50610262612293565b34801561033157600080fd5b506102f87f000000000000000000000000000000000000000000000000000000000000000081565b61026261036736600461550c565b6122f9565b34801561037857600080fd5b506102f87f000000000000000000000000000000000000000000000000000000000000000081565b3480156103ac57600080fd5b506001546001600160a01b03166102f8565b3480156103ca57600080fd5b506101cf6103d936600461565d565b612538565b3480156103ea57600080fd5b506102626103f936600461567f565b61260d565b34801561040a57600080fd5b506102f87f000000000000000000000000000000000000000000000000000000000000000081565b34801561043e57600080fd5b5061026261044d36600461550c565b612b71565b34801561045e57600080fd5b506101cf61046d36600461550c565b60036020526000908152604090205481565b34801561048b57600080fd5b506102f87f000000000000000000000000000000000000000000000000000000000000000081565b3480156104bf57600080fd5b506102f87f000000000000000000000000000000000000000000000000000000000000000081565b3480156104f357600080fd5b506101cf61050236600461550c565b612d2a565b34801561051357600080fd5b50610537610522366004614fa1565b60056020526000908152604090205460ff1681565b60405190151581526020016101d9565b34801561055357600080fd5b506102f87f000000000000000000000000000000000000000000000000000000000000000081565b34801561058757600080fd5b506101cf60045481565b34801561059d57600080fd5b506101cf6105ac36600461550c565b61316a565b3480156105bd57600080fd5b506101cf6105cc3660046155c9565b61322c565b3480156105dd57600080fd5b506102626105ec366004614fa1565b613627565b60008034116106475760405162461bcd60e51b815260206004820152601660248201527f5456315f313a3a7061793a204241445f414d4f554e540000000000000000000060448201526064015b60405180910390fd5b6001600160a01b03851661069d5760405162461bcd60e51b815260206004820152601860248201527f5456315f313a3a7061793a205a45524f5f414444524553530000000000000000604482015260640161063e565b6106e186348787878080601f016020809104026020016040519081016040528093929190818152602001838380828437600092019190915250899250613709915050565b9695505050505050565b6000600260005414156107405760405162461bcd60e51b815260206004820152601f60248201527f5265656e7472616e637947756172643a207265656e7472616e742063616c6c00604482015260640161063e565b600260009081556040517f1ee2c9bf00000000000000000000000000000000000000000000000000000000815260048101879052602481018690527f00000000000000000000000000000000000000000000000000000000000000006001600160a01b031690631ee2c9bf9060440161020060405180830381600087803b1580156107ca57600080fd5b505af11580156107de573d6000803e3d6000fd5b505050506040513d601f19601f82011682018060405250810190610802919061543f565b8051909150610815576000915050610cd8565b80610160015184146108695760405162461bcd60e51b815260206004820152601f60248201527f5456315f313a3a7461703a20554e45585045435445445f43555252454e435900604482015260640161063e565b6101608101516040517f9fa937230000000000000000000000000000000000000000000000000000000081526000916001600160a01b037f00000000000000000000000000000000000000000000000000000000000000001691639fa93723916108d99160040190815260200190565b60206040518083038186803b1580156108f157600080fd5b505afa158015610905573d6000803e3d6000fd5b505050506040513d601f19601f820116820180604052508101906109299190615373565b905060006109378783613c22565b9050808511156109895760405162461bcd60e51b815260206004820152601660248201527f5456315f313a3a7461703a20494e414445515541544500000000000000000000604482015260640161063e565b602080840151600090815260039091526040902054808211156109ee5760405162461bcd60e51b815260206004820152601e60248201527f5456315f313a3a7461703a20494e53554646494349454e545f46554e44530000604482015260640161063e565b6109f88282615cf2565b60008a81526003602090815260408083209390935586015191517f6352211e0000000000000000000000000000000000000000000000000000000081526004810192909252907f00000000000000000000000000000000000000000000000000000000000000006001600160a01b031690636352211e9060240160206040518083038186803b158015610a8a57600080fd5b505afa158015610a9e573d6000803e3d6000fd5b505050506040513d601f19601f82011682018060405250810190610ac29190614fbe565b6040517f49491987000000000000000000000000000000000000000000000000000000008152600481018c90529091506000906001600160a01b037f00000000000000000000000000000000000000000000000000000000000000001690634949198790602401602060405180830381600087803b158015610b4357600080fd5b505af1158015610b57573d6000803e3d6000fd5b505050506040513d601f19601f82011682018060405250810190610b7b9190615373565b905060008087610180015111610b92576000610be7565b6101808701516040517f4665652066726f6d2040000000000000000000000000000000000000000000006020820152602a8101849052610be79187918690604a01604051602081830303815290604052613c37565b90506000610c4088610bf98489615cf2565b6040517f5061796f75742066726f6d2040000000000000000000000000000000000000006020820152602d8101879052604d01604051602081830303815290604052613f1c565b90508015610c5257610c52848261438d565b836001600160a01b0316886020015189600001517fe7f36a5ce6404ca99aa79e20649f15a86eed188b6362c51d0302ba182b7af3b88f8c6101600151878c610c9a9190615cf2565b6040805193845260208401929092529082015260608101869052608081018790523360a082015260c00160405180910390a450509451955050505050505b6001600055949350505050565b6040517efdd58e0000000000000000000000000000000000000000000000000000000081526001600160a01b0384811660048301526024820184905260009183917f0000000000000000000000000000000000000000000000000000000000000000169062fdd58e9060440160206040518083038186803b158015610d6957600080fd5b505afa158015610d7d573d6000803e3d6000fd5b505050506040513d601f19601f82011682018060405250810190610da19190615373565b1015610e155760405162461bcd60e51b815260206004820152602e60248201527f5456315f313a3a636c61696d61626c654f766572666c6f773a20494e5355464660448201527f494349454e545f5449434b455453000000000000000000000000000000000000606482015260840161063e565b6040517f43a266c2000000000000000000000000000000000000000000000000000000008152600481018490526000907f00000000000000000000000000000000000000000000000000000000000000006001600160a01b0316906343a266c2906024016102006040518083038186803b158015610e9257600080fd5b505afa158015610ea6573d6000803e3d6000fd5b505050506040513d601f19601f82011682018060405250810190610eca919061543f565b9050806040015160001415610ee3576000915050611239565b6000610eee826144ab565b905080925060006022836101e00151901c6001600160a01b03161115610fa2576022826101e00151901c6001600160a01b031663b37961da866040518263ffffffff1660e01b8152600401610f4591815260200190565b60206040518083038186803b158015610f5d57600080fd5b505afa158015610f71573d6000803e3d6000fd5b505050506040513d601f19601f82011682018060405250810190610f959190615373565b610f9f9084615c66565b92505b82610fb257600092505050611239565b6040517f75b0d9cd000000000000000000000000000000000000000000000000000000008152600481018690526000907f00000000000000000000000000000000000000000000000000000000000000006001600160a01b0316906375b0d9cd9060240160206040518083038186803b15801561102e57600080fd5b505afa158015611042573d6000803e3d6000fd5b505050506040513d601f19601f820116820180604052508101906110669190615373565b9050600061109460026000898152602001908152602001600020546008866101e00151901c60ff16846145c1565b905080156110a9576110a68183615c66565b91505b818614156110cb578285116110be57846110c0565b825b945050505050611239565b60006110d8868885614634565b9050600060016040517fc55f571c000000000000000000000000000000000000000000000000000000008152600481018b90527f00000000000000000000000000000000000000000000000000000000000000006001600160a01b03169063c55f571c9060240160206040518083038186803b15801561115757600080fd5b505afa15801561116b573d6000803e3d6000fd5b505050506040513d601f19601f8201168201806040525081019061118f919061538c565b60038111156111a0576111a0615dd9565b146111b7576010866101e00151901c60ff166111c5565b6018866101e00151901c60ff165b90508060c814156111d85781965061121c565b806111ef576111e8828986614634565b965061121c565b611219826112088a6112028560c8615cf2565b88614634565b6112129084615c66565b60c8614634565b96505b8487111561123257849650505050505050611239565b5050505050505b9392505050565b6000600260005414156112955760405162461bcd60e51b815260206004820152601f60248201527f5265656e7472616e637947756172643a207265656e7472616e742063616c6c00604482015260640161063e565b600260005586866003336001600160a01b038416148061137657506040517fc161c93f0000000000000000000000000000000000000000000000000000000081523360048201526001600160a01b03848116602483015260448201849052606482018390527f0000000000000000000000000000000000000000000000000000000000000000169063c161c93f9060840160206040518083038186803b15801561133e57600080fd5b505afa158015611352573d6000803e3d6000fd5b505050506040513d601f19601f820116820180604052508101906113769190615356565b8061144257506040517fc161c93f0000000000000000000000000000000000000000000000000000000081523360048201526001600160a01b03848116602483015260006044830152606482018390527f0000000000000000000000000000000000000000000000000000000000000000169063c161c93f9060840160206040518083038186803b15801561140a57600080fd5b505afa15801561141e573d6000803e3d6000fd5b505050506040513d601f19601f820116820180604052508101906114429190615356565b61148e5760405162461bcd60e51b815260206004820152601860248201527f4f706572617461626c653a20554e415554484f52495a45440000000000000000604482015260640161063e565b600088116114de5760405162461bcd60e51b815260206004820152601460248201527f5456315f313a3a72656465656d3a204e4f5f4f50000000000000000000000000604482015260640161063e565b6001600160a01b0386166115345760405162461bcd60e51b815260206004820152601b60248201527f5456315f313a3a72656465656d3a205a45524f5f414444524553530000000000604482015260640161063e565b61153f8a8a8a610ce5565b9350868410156115915760405162461bcd60e51b815260206004820152601960248201527f5456315f313a3a72656465656d3a20494e414445515541544500000000000000604482015260640161063e565b83156115c1576000898152600360205260409020546115b1908590615cf2565b60008a8152600360205260409020555b600089815260026020526040812054908112611600578881126115ed576115e88982615c7e565b61161d565b6115f7818a615c7e565b6115e890615d42565b8861160a82615d42565b6116149190615c66565b61161d90615d42565b60008b8152600260205260409081902091909155517f65e0d7310000000000000000000000000000000000000000000000000000000081526001600160a01b038c81166004830152602482018c9052604482018b905287151560648301527f000000000000000000000000000000000000000000000000000000000000000016906365e0d73190608401600060405180830381600087803b1580156116c157600080fd5b505af11580156116d5573d6000803e3d6000fd5b5050505060008511156116ec576116ec878661438d565b604080518a815260208101879052338183015290518b916001600160a01b038a811692908f16917f78ce282a3b64e54349642ee14253bf3ca2a4c69b6e479d57d196027f1d0a514e919081900360600190a4505060016000555090979650505050505050565b6001546001600160a01b031633146117ac5760405162461bcd60e51b815260206004820181905260248201527f4f776e61626c653a2063616c6c6572206973206e6f7420746865206f776e6572604482015260640161063e565b6001600160a01b0381166118285760405162461bcd60e51b815260206004820152602360248201527f5456315f313a3a616c6c6f774d6967726174696f6e3a205a45524f5f4144445260448201527f4553530000000000000000000000000000000000000000000000000000000000606482015260840161063e565b6001600160a01b0381163014156118815760405162461bcd60e51b815260206004820152601c60248201527f5456315f313a3a616c6c6f774d6967726174696f6e3a204e4f5f4f5000000000604482015260640161063e565b6001600160a01b03811660008181526005602090815260409182902080547fffffffffffffffffffffffffffffffffffffffffffffffffffffffffffffff0016600117905590519182527fdbee026e3c3dc50322e5f718d6bf90a96cefdc9e2bfa693436d0e1ddf600d1cc91015b60405180910390a150565b600061191361190e368690038601866153ad565b614739565b905060007f00000000000000000000000000000000000000000000000000000000000000006001600160a01b03166317753c468b8b8b8b306040518663ffffffff1660e01b815260040161196b9594939291906157ca565b602060405180830381600087803b15801561198557600080fd5b505af1158015611999573d6000803e3d6000fd5b505050506040513d601f19601f820116820180604052508101906119bd9190615373565b905060007f00000000000000000000000000000000000000000000000000000000000000006001600160a01b0316638a1b0eb483898660045460016040518663ffffffff1660e01b8152600401611a18959493929190615912565b61020060405180830381600087803b158015611a3357600080fd5b505af1158015611a47573d6000803e3d6000fd5b505050506040513d601f19601f82011682018060405250810190611a6b919061543f565b855190915015611b145760808101516040517fa67e210a0000000000000000000000000000000000000000000000000000000081526001600160a01b037f0000000000000000000000000000000000000000000000000000000000000000169163a67e210a91611ae19186918a90600401615989565b600060405180830381600087803b158015611afb57600080fd5b505af1158015611b0f573d6000803e3d6000fd5b505050505b835115611bba5760808101516040517febe352a40000000000000000000000000000000000000000000000000000000081526001600160a01b037f0000000000000000000000000000000000000000000000000000000000000000169163ebe352a491611b879186918990600401615a35565b600060405180830381600087803b158015611ba157600080fd5b505af1158015611bb5573d6000803e3d6000fd5b505050505b5050505050505050505050565b6040517f6352211e000000000000000000000000000000000000000000000000000000008152600481018390527f00000000000000000000000000000000000000000000000000000000000000006001600160a01b031690636352211e9060240160206040518083038186803b158015611c4057600080fd5b505afa158015611c54573d6000803e3d6000fd5b505050506040513d601f19601f82011682018060405250810190611c789190614fbe565b826004336001600160a01b0384161480611d5357506040517fc161c93f0000000000000000000000000000000000000000000000000000000081523360048201526001600160a01b03848116602483015260448201849052606482018390527f0000000000000000000000000000000000000000000000000000000000000000169063c161c93f9060840160206040518083038186803b158015611d1b57600080fd5b505afa158015611d2f573d6000803e3d6000fd5b505050506040513d601f19601f82011682018060405250810190611d539190615356565b611d9f5760405162461bcd60e51b815260206004820152601860248201527f4f706572617461626c653a20554e415554484f52495a45440000000000000000604482015260640161063e565b60026000541415611df25760405162461bcd60e51b815260206004820152601f60248201527f5265656e7472616e637947756172643a207265656e7472616e742063616c6c00604482015260640161063e565b60026000556040517f4fe0eced0000000000000000000000000000000000000000000000000000000081526004810186905230906001600160a01b037f00000000000000000000000000000000000000000000000000000000000000001690634fe0eced9060240160206040518083038186803b158015611e7257600080fd5b505afa158015611e86573d6000803e3d6000fd5b505050506040513d601f19601f82011682018060405250810190611eaa9190614fbe565b6001600160a01b031614611f005760405162461bcd60e51b815260206004820152601c60248201527f5456315f313a3a6d6967726174653a20554e415554484f52495a454400000000604482015260640161063e565b6001600160a01b03841660009081526005602052604090205460ff16611f685760405162461bcd60e51b815260206004820152601b60248201527f5456315f313a3a6d6967726174653a204e4f545f414c4c4f5745440000000000604482015260640161063e565b6040517f75b0d9cd000000000000000000000000000000000000000000000000000000008152600481018690527f00000000000000000000000000000000000000000000000000000000000000006001600160a01b0316906375b0d9cd9060240160206040518083038186803b158015611fe157600080fd5b505afa158015611ff5573d6000803e3d6000fd5b505050506040513d601f19601f820116820180604052508101906120199190615373565b600086815260026020526040902054146120385761203685612d2a565b505b6000858152600360205260408120805491905580156120c7576040517f8a19e355000000000000000000000000000000000000000000000000000000008152600481018790526001600160a01b03861690638a19e3559083906024016000604051808303818588803b1580156120ad57600080fd5b505af11580156120c1573d6000803e3d6000fd5b50505050505b6040517f9fc9ea47000000000000000000000000000000000000000000000000000000008152600481018790526001600160a01b0386811660248301527f00000000000000000000000000000000000000000000000000000000000000001690639fc9ea4790604401600060405180830381600087803b15801561214a57600080fd5b505af115801561215e573d6000803e3d6000fd5b5050604080518481523360208201526001600160a01b03891693508992507fa7519e5f94697b7f53e97c5eb46a0c730a296ab686ab8fd333835c5f735784eb910160405180910390a35050600160005550505050565b6001546001600160a01b0316331461220e5760405162461bcd60e51b815260206004820181905260248201527f4f776e61626c653a2063616c6c6572206973206e6f7420746865206f776e6572604482015260640161063e565b600a81111561225f5760405162461bcd60e51b815260206004820152601660248201527f5456315f313a3a7365744665653a204241445f46454500000000000000000000604482015260640161063e565b60048190556040518181527e172ddfc5ae88d08b3de01a5a187667c37a5a53989e8c175055cb6c993792a7906020016118ef565b6001546001600160a01b031633146122ed5760405162461bcd60e51b815260206004820181905260248201527f4f776e61626c653a2063616c6c6572206973206e6f7420746865206f776e6572604482015260640161063e565b6122f7600061496d565b565b600034116123495760405162461bcd60e51b815260206004820152601f60248201527f5456315f313a3a616464546f42616c616e63653a204241445f414d4f554e5400604482015260640161063e565b6040517f4fe0eced0000000000000000000000000000000000000000000000000000000081526004810182905230906001600160a01b037f00000000000000000000000000000000000000000000000000000000000000001690634fe0eced9060240160206040518083038186803b1580156123c457600080fd5b505afa1580156123d8573d6000803e3d6000fd5b505050506040513d601f19601f820116820180604052508101906123fc9190614fbe565b6001600160a01b0316146124cb576040517f75b0d9cd000000000000000000000000000000000000000000000000000000008152600481018290527f00000000000000000000000000000000000000000000000000000000000000006001600160a01b0316906375b0d9cd9060240160206040518083038186803b15801561248357600080fd5b505afa158015612497573d6000803e3d6000fd5b505050506040513d601f19601f820116820180604052508101906124bb9190615373565b6000828152600260205260409020555b6000818152600360205260409020546124e5903490615c66565b600082815260036020908152604091829020929092558051348152339281019290925282917f08534c4f6026a713959f9286d994e8430e6d0fd11045360abf782bacaa288d43910160405180910390a250565b6000828152600260205260408082205490517f75b0d9cd00000000000000000000000000000000000000000000000000000000815260048101859052612604919084907f00000000000000000000000000000000000000000000000000000000000000006001600160a01b0316906375b0d9cd9060240160206040518083038186803b1580156125c757600080fd5b505afa1580156125db573d6000803e3d6000fd5b505050506040513d601f19601f820116820180604052508101906125ff9190615373565b6145c1565b90505b92915050565b6040517f6352211e000000000000000000000000000000000000000000000000000000008152600481018690527f00000000000000000000000000000000000000000000000000000000000000006001600160a01b031690636352211e9060240160206040518083038186803b15801561268657600080fd5b505afa15801561269a573d6000803e3d6000fd5b505050506040513d601f19601f820116820180604052508101906126be9190614fbe565b856011336001600160a01b038416148061279957506040517fc161c93f0000000000000000000000000000000000000000000000000000000081523360048201526001600160a01b03848116602483015260448201849052606482018390527f0000000000000000000000000000000000000000000000000000000000000000169063c161c93f9060840160206040518083038186803b15801561276157600080fd5b505afa158015612775573d6000803e3d6000fd5b505050506040513d601f19601f820116820180604052508101906127999190615356565b6127e55760405162461bcd60e51b815260206004820152601860248201527f4f706572617461626c653a20554e415554484f52495a45440000000000000000604482015260640161063e565b6001600160a01b0386166128615760405162461bcd60e51b815260206004820152602160248201527f5456315f313a3a7072696e745469636b6574733a205a45524f5f41444452455360448201527f5300000000000000000000000000000000000000000000000000000000000000606482015260840161063e565b6040517f43a266c2000000000000000000000000000000000000000000000000000000008152600481018990526000907f00000000000000000000000000000000000000000000000000000000000000006001600160a01b0316906343a266c2906024016102006040518083038186803b1580156128de57600080fd5b505afa1580156128f2573d6000803e3d6000fd5b505050506040513d601f19601f82011682018060405250810190612916919061543f565b905080604001516000148061293757506021816101e00151901c6001166001145b6129835760405162461bcd60e51b815260206004820181905260248201527f5456315f313a3a7072696e745469636b6574733a204e4f545f414c4c4f574544604482015260640161063e565b60008981526002602052604081205412806129d857506000898152600260205260409020547f7fffffffffffffffffffffffffffffffffffffffffffffffffffffffffffffff906129d5908a90615c66565b11155b612a4a5760405162461bcd60e51b815260206004820152602660248201527f5456315f313a3a7072696e745469636b6574733a20494e545f4c494d49545f5260448201527f4541434845440000000000000000000000000000000000000000000000000000606482015260840161063e565b600089815260026020526040902054612a64908990615bf2565b60008a8152600260205260409081902091909155517fe0826c890000000000000000000000000000000000000000000000000000000081526001600160a01b038881166004830152602482018b9052604482018a905286151560648301527f0000000000000000000000000000000000000000000000000000000000000000169063e0826c8990608401600060405180830381600087803b158015612b0857600080fd5b505af1158015612b1c573d6000803e3d6000fd5b50505050866001600160a01b0316897fb745c0ba548003047e8dc09b0dbf5eaed8ae262b5fe0221b4439af8cc40199058a8933604051612b5e939291906158e0565b60405180910390a3505050505050505050565b6040517efdd58e00000000000000000000000000000000000000000000000000000000815261dead6004820152602481018290526000907f00000000000000000000000000000000000000000000000000000000000000006001600160a01b03169062fdd58e9060440160206040518083038186803b158015612bf357600080fd5b505afa158015612c07573d6000803e3d6000fd5b505050506040513d601f19601f82011682018060405250810190612c2b9190615373565b905060008111612c7d5760405162461bcd60e51b815260206004820152601460248201527f30783030204e4f5448494e475f544f5f4255524e000000000000000000000000604482015260640161063e565b6040517f65e0d73100000000000000000000000000000000000000000000000000000000815261dead60048201526024810183905260448101829052600160648201527f00000000000000000000000000000000000000000000000000000000000000006001600160a01b0316906365e0d73190608401600060405180830381600087803b158015612d0e57600080fd5b505af1158015612d22573d6000803e3d6000fd5b505050505050565b6040517f43a266c20000000000000000000000000000000000000000000000000000000081526004810182905260009081906001600160a01b037f000000000000000000000000000000000000000000000000000000000000000016906343a266c2906024016102006040518083038186803b158015612da957600080fd5b505afa158015612dbd573d6000803e3d6000fd5b505050506040513d601f19601f82011682018060405250810190612de1919061543f565b8051909150612df35750600092915050565b6040517f75b0d9cd000000000000000000000000000000000000000000000000000000008152600481018490526000907f00000000000000000000000000000000000000000000000000000000000000006001600160a01b0316906375b0d9cd9060240160206040518083038186803b158015612e6f57600080fd5b505afa158015612e83573d6000803e3d6000fd5b505050506040513d601f19601f82011682018060405250810190612ea79190615373565b9050612ed360026000868152602001908152602001600020546008846101e00151901c60ff16836145c1565b92507f7fffffffffffffffffffffffffffffffffffffffffffffffffffffffffffffff612f008483615c66565b1115612f745760405162461bcd60e51b815260206004820152602e60248201527f5456315f313a3a7072696e7452657365727665645469636b6574733a20494e5460448201527f5f4c494d49545f52454143484544000000000000000000000000000000000000606482015260840161063e565b612f7e8382615c66565b6000858152600260205260408120919091558315612fa557612fa083856149d7565b612fa8565b60005b6040517f6352211e000000000000000000000000000000000000000000000000000000008152600481018790529091506000906001600160a01b037f00000000000000000000000000000000000000000000000000000000000000001690636352211e9060240160206040518083038186803b15801561302757600080fd5b505afa15801561303b573d6000803e3d6000fd5b505050506040513d601f19601f8201168201806040525081019061305f9190614fbe565b90508115613111576040517fe0826c890000000000000000000000000000000000000000000000000000000081526001600160a01b0382811660048301526024820188905260448201849052600060648301527f0000000000000000000000000000000000000000000000000000000000000000169063e0826c8990608401600060405180830381600087803b1580156130f857600080fd5b505af115801561310c573d6000803e3d6000fd5b505050505b83516040805187815260208101859052338183015290516001600160a01b03841692899290917f54ad84f37b2d6ff349b859f99f05bceaba2ee199cde3b63ae47c38f5d6116c0d9181900360600190a450505050919050565b6040517f43a266c20000000000000000000000000000000000000000000000000000000081526004810182905260009081906001600160a01b037f000000000000000000000000000000000000000000000000000000000000000016906343a266c2906024016102006040518083038186803b1580156131e957600080fd5b505afa1580156131fd573d6000803e3d6000fd5b505050506040513d601f19601f82011682018060405250810190613221919061543f565b9050611239816144ab565b6040517f6352211e000000000000000000000000000000000000000000000000000000008152600481018690526000907f00000000000000000000000000000000000000000000000000000000000000006001600160a01b031690636352211e9060240160206040518083038186803b1580156132a857600080fd5b505afa1580156132bc573d6000803e3d6000fd5b505050506040513d601f19601f820116820180604052508101906132e09190614fbe565b866001336001600160a01b03841614806133bb57506040517fc161c93f0000000000000000000000000000000000000000000000000000000081523360048201526001600160a01b03848116602483015260448201849052606482018390527f0000000000000000000000000000000000000000000000000000000000000000169063c161c93f9060840160206040518083038186803b15801561338357600080fd5b505afa158015613397573d6000803e3d6000fd5b505050506040513d601f19601f820116820180604052508101906133bb9190615356565b6134075760405162461bcd60e51b815260206004820152601860248201527f4f706572617461626c653a20554e415554484f52495a45440000000000000000604482015260640161063e565b600061341b61190e368a90038a018a6153ad565b905060007f00000000000000000000000000000000000000000000000000000000000000006001600160a01b0316638a1b0eb48c8c8560045460006040518663ffffffff1660e01b8152600401613476959493929190615912565b61020060405180830381600087803b15801561349157600080fd5b505af11580156134a5573d6000803e3d6000fd5b505050506040513d601f19601f820116820180604052508101906134c9919061543f565b8851909150156135725760808101516040517fa67e210a0000000000000000000000000000000000000000000000000000000081526001600160a01b037f0000000000000000000000000000000000000000000000000000000000000000169163a67e210a9161353f918f918d90600401615989565b600060405180830381600087803b15801561355957600080fd5b505af115801561356d573d6000803e3d6000fd5b505050505b8651156136185760808101516040517febe352a40000000000000000000000000000000000000000000000000000000081526001600160a01b037f0000000000000000000000000000000000000000000000000000000000000000169163ebe352a4916135e5918f918c90600401615a35565b600060405180830381600087803b1580156135ff57600080fd5b505af1158015613613573d6000803e3d6000fd5b505050505b519a9950505050505050505050565b6001546001600160a01b031633146136815760405162461bcd60e51b815260206004820181905260248201527f4f776e61626c653a2063616c6c6572206973206e6f7420746865206f776e6572604482015260640161063e565b6001600160a01b0381166136fd5760405162461bcd60e51b815260206004820152602660248201527f4f776e61626c653a206e6577206f776e657220697320746865207a65726f206160448201527f6464726573730000000000000000000000000000000000000000000000000000606482015260840161063e565b6137068161496d565b50565b6040517f43a266c20000000000000000000000000000000000000000000000000000000081526004810186905260009081906001600160a01b037f000000000000000000000000000000000000000000000000000000000000000016906343a266c2906024016102006040518083038186803b15801561378857600080fd5b505afa15801561379c573d6000803e3d6000fd5b505050506040513d601f19601f820116820180604052508101906137c0919061543f565b90506020816101e00151901c60011660001461381e5760405162461bcd60e51b815260206004820152601260248201527f5456315f313a3a7061793a205041555345440000000000000000000000000000604482015260640161063e565b60008160400151600014613836578160c001516138c7565b7f00000000000000000000000000000000000000000000000000000000000000006001600160a01b031663e16fd0ec6040518163ffffffff1660e01b815260040160206040518083038186803b15801561388f57600080fd5b505afa1580156138a3573d6000803e3d6000fd5b505050506040513d601f19601f820116820180604052508101906138c79190615373565b905060006138d58883614c4f565b9050600083604001516000146138f7576008846101e00151901c60ff166138fa565b60005b9050600061390d836112128460c8615cf2565b60008c81526003602052604090205490915061392a908b90615c66565b60008c8152600360205260409020558015613ac2576040850151613a135760008b815260026020526040812054128061399d575060008b8152600260205260409020547f7fffffffffffffffffffffffffffffffffffffffffffffffffffffffffffffff9061399a908590615c66565b11155b6139e95760405162461bcd60e51b815260206004820152601c60248201527f5456315f313a3a70617920494e545f4c494d49545f5245414348454400000000604482015260640161063e565b60008b815260026020526040902054613a03908290615bf2565b60008c8152600260205260409020555b6040517fe0826c890000000000000000000000000000000000000000000000000000000081526001600160a01b038a81166004830152602482018d90526044820183905288151560648301527f0000000000000000000000000000000000000000000000000000000000000000169063e0826c8990608401600060405180830381600087803b158015613aa557600080fd5b505af1158015613ab9573d6000803e3d6000fd5b50505050613bc3565b8215613bc35760008b8152600260205260408120541380613b27575060008b8152600260205260409020547f7fffffffffffffffffffffffffffffffffffffffffffffffffffffffffffffff908490613b1a90615d42565b613b249190615c66565b11155b613b995760405162461bcd60e51b815260206004820152602660248201527f5456315f313a3a7072696e745469636b6574733a20494e545f4c494d49545f5260448201527f4541434845440000000000000000000000000000000000000000000000000000606482015260840161063e565b60008b815260026020526040902054613bb3908490615c7e565b60008c8152600260205260409020555b886001600160a01b03168b86600001517fd595184f93e5de76e6c92bf66d279d827d0be8fad5cec3a420d86716e1a665328d85888e33604051613c0a959493929190615abc565b60405180910390a45050915198975050505050505050565b600061260483670de0b6b3a764000084614634565b6000613c4e8560c8613c498782615c66565b614634565b613c589086615cf2565b905080613c6757506000613f14565b6040517f4fe0eced0000000000000000000000000000000000000000000000000000000081526001600482015230906001600160a01b037f00000000000000000000000000000000000000000000000000000000000000001690634fe0eced9060240160206040518083038186803b158015613ce257600080fd5b505afa158015613cf6573d6000803e3d6000fd5b505050506040513d601f19601f82011682018060405250810190613d1a9190614fbe565b6001600160a01b03161415613d3e57613d3860018285856000613709565b50613f14565b6040517f4fe0eced000000000000000000000000000000000000000000000000000000008152600160048201526000907f00000000000000000000000000000000000000000000000000000000000000006001600160a01b031690634fe0eced9060240160206040518083038186803b158015613dba57600080fd5b505afa158015613dce573d6000803e3d6000fd5b505050506040513d601f19601f82011682018060405250810190613df29190614fbe565b90506001600160a01b038116613e705760405162461bcd60e51b815260206004820152602360248201527f5456315f313a3a5f74616b654665653a205445524d494e414c5f4e4f545f464f60448201527f554e440000000000000000000000000000000000000000000000000000000000606482015260840161063e565b6040517f02c8986f0000000000000000000000000000000000000000000000000000000081526001600160a01b038216906302c8986f908490613ebf906001908990899060009060040161581e565b6020604051808303818588803b158015613ed857600080fd5b505af1158015613eec573d6000803e3d6000fd5b50505050506040513d601f19601f82011682018060405250810190613f119190615373565b50505b949350505050565b602083015160808401516040517f7559aaaa0000000000000000000000000000000000000000000000000000000081526004810192909252602482015282906000907f00000000000000000000000000000000000000000000000000000000000000006001600160a01b031690637559aaaa9060440160006040518083038186803b158015613faa57600080fd5b505afa158015613fbe573d6000803e3d6000fd5b505050506040513d6000823e601f3d908101601f19168201604052613fe6919081019061514b565b9050805160001415613ff85750611239565b60005b815181101561438457600082828151811061401857614018615e08565b60200260200101519050600061403987836020015161ffff16612710614634565b9050801561431e5760808201516001600160a01b0316156140fc576080820151602089015160a084015160608501516040517fec695ef7000000000000000000000000000000000000000000000000000000008152600481019390935266ffffffffffffff90911660248301526001600160a01b0390811660448301529091169063ec695ef79083906064016000604051808303818588803b1580156140de57600080fd5b505af11580156140f2573d6000803e3d6000fd5b505050505061431e565b60a082015166ffffffffffffff16156143105760a08201516040517f4fe0eced00000000000000000000000000000000000000000000000000000000815266ffffffffffffff90911660048201526000907f00000000000000000000000000000000000000000000000000000000000000006001600160a01b031690634fe0eced9060240160206040518083038186803b15801561419957600080fd5b505afa1580156141ad573d6000803e3d6000fd5b505050506040513d601f19601f820116820180604052508101906141d19190614fbe565b90506001600160a01b0381166142295760405162461bcd60e51b815260206004820152601360248201527f5456315f313a3a7461703a204241445f4d4f4400000000000000000000000000604482015260640161063e565b6001600160a01b0381163014156142625761425c8360a0015166ffffffffffffff168385606001518a8760000151613709565b5061430a565b60a0830151606084015184516040517f02c8986f0000000000000000000000000000000000000000000000000000000081526001600160a01b038516936302c8986f9387936142b6938e9190600401615afc565b6020604051808303818588803b1580156142cf57600080fd5b505af11580156142e3573d6000803e3d6000fd5b50505050506040513d601f19601f820116820180604052508101906143089190615373565b505b5061431e565b61431e82606001518261438d565b6143288186615cf2565b9450876020015188600001517fd37e528ac0cd9d9eeaa32903a436be474cce5651f7d3313a580ceacdae5cb34584843360405161436793929190615859565b60405180910390a35050808061437c90615d09565b915050613ffb565b50509392505050565b804710156143dd5760405162461bcd60e51b815260206004820152601d60248201527f416464726573733a20696e73756666696369656e742062616c616e6365000000604482015260640161063e565b6000826001600160a01b03168260405160006040518083038185875af1925050503d806000811461442a576040519150601f19603f3d011682016040523d82523d6000602084013e61442f565b606091505b50509050806144a65760405162461bcd60e51b815260206004820152603a60248201527f416464726573733a20756e61626c6520746f2073656e642076616c75652c207260448201527f6563697069656e74206d61792068617665207265766572746564000000000000606482015260840161063e565b505050565b6000807f00000000000000000000000000000000000000000000000000000000000000006001600160a01b0316639fa937238461016001516040518263ffffffff1660e01b815260040161450191815260200190565b60206040518083038186803b15801561451957600080fd5b505afa15801561452d573d6000803e3d6000fd5b505050506040513d601f19601f820116820180604052508101906145519190615373565b90506000836101c0015184610140015161456b9190615cf2565b9050600081156145845761457f8284613c22565b614587565b60005b6020808701516000908152600390915260409020549091508181106145b5576145b08282615cf2565b6106e1565b60009695505050505050565b60008060008512156145e5576145d685615d42565b6145e09084615c66565b6145ef565b6145ef8584615cf2565b905080614600576000915050611239565b8360c81415614610579050611239565b806146218160c8613c498882615cf2565b61462b9190615cf2565b95945050505050565b600080807fffffffffffffffffffffffffffffffffffffffffffffffffffffffffffffffff858709858702925082811083820303915050806000141561468d5783828161468357614683615daa565b0492505050611239565b8381106146d0576040517f773cc18c000000000000000000000000000000000000000000000000000000008152600481018290526024810185905260440161063e565b60008486880960026001871981018816978890046003810283188082028403028082028403028082028403028082028403028082028403029081029092039091026000889003889004909101858311909403939093029303949094049190911702949350505050565b600060c8826000015111156147b65760405162461bcd60e51b815260206004820152603e60248201527f5456315f313a3a5f76616c6964617465416e645061636b46756e64696e67437960448201527f636c654d657461646174613a204241445f52455345525645445f524154450000606482015260840161063e565b60c8826020015111156148575760405162461bcd60e51b815260206004820152604360248201527f5456315f313a3a5f76616c6964617465416e645061636b46756e64696e67437960448201527f636c654d657461646174613a204241445f424f4e44494e475f43555256455f5260648201527f4154450000000000000000000000000000000000000000000000000000000000608482015260a40161063e565b60c8826040015111156148f85760405162461bcd60e51b815260206004820152605360248201527f5456315f313a3a5f76616c6964617465416e645061636b46756e64696e67437960448201527f636c654d657461646174613a204241445f5245434f4e46494755524154494f4e60648201527f5f424f4e44494e475f43555256455f5241544500000000000000000000000000608482015260a40161063e565b50805160208201516040830151606084015160189190911b60109290921b60089390931b9290921717600117901561493257640100000000175b81608001511561494457640200000000175b60a0919091015160221b7803fffffffffffffffffffffffffffffffffffffffc00000000161790565b600180546001600160a01b038381167fffffffffffffffffffffffff0000000000000000000000000000000000000000831681179093556040519116919082907f8be0079c531659141344cd1fd0a4f28419497f9722a3daafe3b4186f6b6457e090600090a35050565b602082015160808301516040517f4833b5120000000000000000000000000000000000000000000000000000000081526004810192909252602482015281906000907f00000000000000000000000000000000000000000000000000000000000000006001600160a01b031690634833b5129060440160006040518083038186803b158015614a6557600080fd5b505afa158015614a79573d6000803e3d6000fd5b505050506040513d6000823e601f3d908101601f19168201604052614aa19190810190615262565b905060005b8151811015614c47576000828281518110614ac357614ac3615e08565b602002602001015190506000614ae486836020015161ffff16612710614634565b90508015614ba5576060820151602088015183516040517fe0826c890000000000000000000000000000000000000000000000000000000081526001600160a01b039384166004820152602481019290925260448201849052151560648201527f00000000000000000000000000000000000000000000000000000000000000009091169063e0826c8990608401600060405180830381600087803b158015614b8c57600080fd5b505af1158015614ba0573d6000803e3d6000fd5b505050505b614baf8186615cf2565b6020808901518951604080518751151581528785015161ffff16948101949094528087015165ffffffffffff16908401526060808701516001600160a01b031690840152608083018590523360a084015292975091907fe499491e3f5b7f35b5078102c27aa039bbde7ed027b91c996ac41e15d8f87d5c9060c00160405180910390a350508080614c3f90615d09565b915050614aa6565b505092915050565b60006126048383600080807fffffffffffffffffffffffffffffffffffffffffffffffffffffffffffffffff848609848602925082811083820303915050670de0b6b3a76400008110614cd1576040517fd31b34020000000000000000000000000000000000000000000000000000000081526004810182905260240161063e565b600080670de0b6b3a76400008688099150506706f05b59d3b1ffff811182614d0b5780670de0b6b3a7640000850401945050505050612607565b6204000082850304939091119091037d40000000000000000000000000000000000000000000000000000000000002919091177faccb18165bd6fe31ae1cf318dc5b51eee0e1ba569b88cd74c1773b91fac106690201905092915050565b600082601f830112614d7a57600080fd5b81356020614d8f614d8a83615bce565b615b9d565b8281528181019085830160c080860288018501891015614dae57600080fd5b6000805b87811015614e4c5782848c031215614dc8578182fd5b614dd0615b2d565b8435614ddb81615e7b565b815284880135614dea81615e89565b81890152604085810135614dfd81615e99565b90820152606085810135614e1081615e66565b90820152608085810135614e2381615e66565b9082015260a085810135614e3681615ead565b9082015286529486019492820192600101614db2565b50929998505050505050505050565b600082601f830112614e6c57600080fd5b81356020614e7c614d8a83615bce565b80838252828201915082860187848660071b8901011115614e9c57600080fd5b6000805b86811015614f1757608080848c031215614eb8578283fd5b614ec0615b56565b8435614ecb81615e7b565b815284880135614eda81615e89565b81890152604085810135614eed81615e99565b90820152606085810135614f0081615e66565b908201528652948601949290920191600101614ea0565b509198975050505050505050565b8035614f3081615e7b565b919050565b8051614f3081615e66565b60008083601f840112614f5257600080fd5b50813567ffffffffffffffff811115614f6a57600080fd5b602083019150836020828501011115614f8257600080fd5b9250929050565b600060c08284031215614f9b57600080fd5b50919050565b600060208284031215614fb357600080fd5b813561123981615e66565b600060208284031215614fd057600080fd5b815161123981615e66565b600080600080600080600080610220898b031215614ff857600080fd5b883561500381615e66565b975060208901359650604089013567ffffffffffffffff8082111561502757600080fd5b6150338c838d01614f40565b90985096508691506150488c60608d01614f89565b95506150588c6101208d01614f89565b94506101e08b013591508082111561506f57600080fd5b61507b8c838d01614d69565b93506102008b013591508082111561509257600080fd5b5061509f8b828c01614e5b565b9150509295985092959890939650565b6000806000606084860312156150c457600080fd5b83356150cf81615e66565b95602085013595506040909401359392505050565b60008060008060008060c087890312156150fd57600080fd5b863561510881615e66565b9550602087013594506040870135935060608701359250608087013561512d81615e66565b915060a087013561513d81615e7b565b809150509295509295509295565b6000602080838503121561515e57600080fd5b825167ffffffffffffffff81111561517557600080fd5b8301601f8101851361518657600080fd5b8051615194614d8a82615bce565b8181528381019083850160c0808502860187018a10156151b357600080fd5b60009550855b858110156152535781838c0312156151cf578687fd5b6151d7615b2d565b83516151e281615e7b565b8152838901516151f181615e89565b818a015260408481015161520481615e99565b9082015260608481015161521781615e66565b9082015260808481015161522a81615e66565b9082015260a08481015161523d81615ead565b90820152855293870193918101916001016151b9565b50919998505050505050505050565b6000602080838503121561527557600080fd5b825167ffffffffffffffff81111561528c57600080fd5b8301601f8101851361529d57600080fd5b80516152ab614d8a82615bce565b80828252848201915084840188868560071b87010111156152cb57600080fd5b60009450845b8481101561534857608080838c0312156152e9578687fd5b6152f1615b56565b83516152fc81615e7b565b81528389015161530b81615e89565b818a015260408481015161531e81615e99565b9082015260608481015161533181615e66565b9082015285529387019391909101906001016152d1565b509098975050505050505050565b60006020828403121561536857600080fd5b815161123981615e7b565b60006020828403121561538557600080fd5b5051919050565b60006020828403121561539e57600080fd5b81516004811061123957600080fd5b600060c082840312156153bf57600080fd5b60405160c0810181811067ffffffffffffffff821117156153e2576153e2615e37565b8060405250823581526020830135602082015260408301356040820152606083013561540d81615e7b565b6060820152608083013561542081615e7b565b608082015260a083013561543381615e66565b60a08201529392505050565b6000610200828403121561545257600080fd5b61545a615b79565b825181526020830151602082015260408301516040820152606083015160608201526080830151608082015260a083015160a082015260c083015160c08201526154a660e08401614f35565b60e0820152610100838101519082015261012080840151908201526101408084015190820152610160808401519082015261018080840151908201526101a080840151908201526101c080840151908201526101e0928301519281019290925250919050565b60006020828403121561551e57600080fd5b5035919050565b60008060008060006080868803121561553d57600080fd5b85359450602086013561554f81615e66565b9350604086013567ffffffffffffffff81111561556b57600080fd5b61557788828901614f40565b909450925050606086013561558b81615e7b565b809150509295509295909350565b600080604083850312156155ac57600080fd5b8235915060208301356155be81615e66565b809150509250929050565b60008060008060006101e086880312156155e257600080fd5b853594506155f38760208801614f89565b93506156028760e08801614f89565b92506101a086013567ffffffffffffffff8082111561562057600080fd5b61562c89838a01614d69565b93506101c088013591508082111561564357600080fd5b5061565088828901614e5b565b9150509295509295909350565b6000806040838503121561567057600080fd5b50508035926020909101359150565b600080600080600060a0868803121561569757600080fd5b85359450602080870135945060408701356156b181615e66565b9350606087013567ffffffffffffffff808211156156ce57600080fd5b818901915089601f8301126156e257600080fd5b8135818111156156f4576156f4615e37565b61570684601f19601f84011601615b9d565b91508082528a8482850101111561571c57600080fd5b808484018584013760008482840101525080945050505061573f60808701614f25565b90509295509295909350565b6000806000806080858703121561576157600080fd5b5050823594602084013594506040840135936060013592509050565b6000815180845260005b818110156157a357602081850181015186830182015201615787565b818111156157b5576000602083870101525b50601f01601f19169290920160200192915050565b60006001600160a01b03808816835286602084015260806040840152846080840152848660a0850137600060a0868501015260a0601f19601f87011684010191508084166060840152509695505050505050565b8481526001600160a01b0384166020820152608060408201526000615846608083018561577d565b9050821515606083015295945050505050565b61010081016158c3828680511515825261ffff602082015116602083015265ffffffffffff604082015116604083015260608101516001600160a01b038082166060850152806080840151166080850152505066ffffffffffffff60a08201511660a08301525050565b8360c08301526001600160a01b03831660e0830152949350505050565b8381526060602082015260006158f9606083018561577d565b90506001600160a01b0383166040830152949350505050565b60006101408201905086825285356020830152602086013560408301526040860135606083015260608601356080830152608086013560a083015260a086013561595b81615e66565b6001600160a01b031660c083015260e082019490945261010081019290925215156101209091015292915050565b6000606082018583526020858185015260606040850152818551808452608086019150828701935060005b8181101561534857615a2283865180511515825261ffff602082015116602083015265ffffffffffff604082015116604083015260608101516001600160a01b038082166060850152806080840151166080850152505066ffffffffffffff60a08201511660a08301525050565b9383019360c092909201916001016159b4565b600060608201858352602085818501526060604085015281855180845260809350838601915082870160005b8281101561525357615aac84835180511515825261ffff602082015116602083015265ffffffffffff60408201511660408301526001600160a01b0360608201511660608301525050565b9285019290840190600101615a61565b85815284602082015283604082015260a060608201526000615ae160a083018561577d565b90506001600160a01b03831660808301529695505050505050565b66ffffffffffffff851681526001600160a01b0384166020820152608060408201526000615846608083018561577d565b60405160c0810167ffffffffffffffff81118282101715615b5057615b50615e37565b60405290565b6040516080810167ffffffffffffffff81118282101715615b5057615b50615e37565b604051610200810167ffffffffffffffff81118282101715615b5057615b50615e37565b604051601f8201601f1916810167ffffffffffffffff81118282101715615bc657615bc6615e37565b604052919050565b600067ffffffffffffffff821115615be857615be8615e37565b5060051b60200190565b6000808212827f7fffffffffffffffffffffffffffffffffffffffffffffffffffffffffffffff03841381151615615c2c57615c2c615d7b565b827f8000000000000000000000000000000000000000000000000000000000000000038412811615615c6057615c60615d7b565b50500190565b60008219821115615c7957615c79615d7b565b500190565b6000808312837f800000000000000000000000000000000000000000000000000000000000000001831281151615615cb857615cb8615d7b565b837f7fffffffffffffffffffffffffffffffffffffffffffffffffffffffffffffff018313811615615cec57615cec615d7b565b50500390565b600082821015615d0457615d04615d7b565b500390565b60007fffffffffffffffffffffffffffffffffffffffffffffffffffffffffffffffff821415615d3b57615d3b615d7b565b5060010190565b60007f8000000000000000000000000000000000000000000000000000000000000000821415615d7457615d74615d7b565b5060000390565b7f4e487b7100000000000000000000000000000000000000000000000000000000600052601160045260246000fd5b7f4e487b7100000000000000000000000000000000000000000000000000000000600052601260045260246000fd5b7f4e487b7100000000000000000000000000000000000000000000000000000000600052602160045260246000fd5b7f4e487b7100000000000000000000000000000000000000000000000000000000600052603260045260246000fd5b7f4e487b7100000000000000000000000000000000000000000000000000000000600052604160045260246000fd5b6001600160a01b038116811461370657600080fd5b801515811461370657600080fd5b61ffff8116811461370657600080fd5b65ffffffffffff8116811461370657600080fd5b66ffffffffffffff8116811461370657600080fdfea2646970667358221220cee00c005eda902e3e3944b90b9665c0ae0c5171e6d0af961f2dfdadb5b5fb8764736f6c63430008060033",
  "devdoc": {
    "details": " A project can transfer its funds, along with the power to reconfigure and mint/burn their Tickets, from this contract to another allowed terminal contract at any time.",
    "kind": "dev",
    "methods": {
      "addToBalance(uint256)": {
        "params": {
          "_projectId": "The ID of the project to which the funds received belong."
        }
      },
      "allowMigration(address)": {
        "details": "Only governance can add a contract to the migration allow list.",
        "params": {
          "_contract": "The contract to allow."
        }
      },
      "burnFromDeadAddress(uint256)": {
        "details": "Callable by anyone.",
        "params": {
          "_projectId": "The ID of the project whose tokens are being burned."
        }
      },
      "claimableOverflowOf(address,uint256,uint256)": {
        "details": "The _account must have at least _count tickets for the specified project.If there is a funding cycle reconfiguration ballot open for the project, the project's current bonding curve is bypassed.No more than the overflow can be claimable.",
        "params": {
          "_account": "The address to get an amount for.",
          "_count": "The number of Tickets that would be redeemed to get the resulting amount.",
          "_projectId": "The ID of the project to get a claimable amount for."
        },
        "returns": {
          "_claimableOverflow": "amount The amount of tokens that can be claimed."
        }
      },
      "configure(uint256,(uint256,uint256,uint256,uint256,uint256,address),(uint256,uint256,uint256,bool,bool,address),(bool,uint16,uint48,address,address,uint56)[],(bool,uint16,uint48,address)[])": {
        "details": "Only a project's owner or a designated operator can configure its funding cycles._properties.target The amount that the project wants to receive in this funding stage. Sent as a wad._properties.currency The currency of the `target`. Send 0 for ETH or 1 for USD._properties.duration The duration of the funding stage for which the `target` amount is needed. Measured in days. Send 0 for a boundless cycle reconfigurable at any time._properties.cycleLimit The number of cycles that this configuration should last for before going back to the last permanent. This has no effect for a project's first funding cycle._properties.discountRate A number from 0-200 indicating how valuable a contribution to this funding stage is compared to the project's previous funding stage. If it's 200, each funding stage will have equal weight. If the number is 180, a contribution to the next funding stage will only give you 90% of tickets given to a contribution of the same amount during the current funding stage. If the number is 0, an non-recurring funding stage will get made._properties.ballot The new ballot that will be used to approve subsequent reconfigurations._metadata.reservedRate A number from 0-200 indicating the percentage of each contribution's tickets that will be reserved for the project owner._metadata.bondingCurveRate The rate from 0-200 at which a project's Tickets can be redeemed for surplus. The bonding curve formula is https://www.desmos.com/calculator/sp9ru6zbpk where x is _count, o is _currentOverflow, s is _totalSupply, and r is _bondingCurveRate._metadata.reconfigurationBondingCurveRate The bonding curve rate to apply when there is an active ballot.",
        "params": {
          "_metadata": "A struct specifying the TerminalV1 specific params _bondingCurveRate, and _reservedRate.",
          "_projectId": "The ID of the project being reconfigured. ",
          "_properties": "The funding cycle configuration."
        },
        "returns": {
          "_0": "The ID of the funding cycle that was successfully configured."
        }
      },
      "constructor": {
        "params": {
          "_fundingCycles": "A funding cycle configuration store.",
          "_modStore": "A storage for a project's mods.",
          "_operatorStore": "A contract storing operator assignments.",
          "_prices": "A price feed contract to use.",
          "_projects": "A Projects contract which mints ERC-721's that represent project ownership and transfers.",
          "_terminalDirectory": "A directory of a project's current Juicebox terminal to receive payments in.",
          "_ticketBooth": "A contract that manages Ticket printing and redeeming."
        }
      },
      "currentOverflowOf(uint256)": {
        "params": {
          "_projectId": "The ID of the project to get overflow for."
        },
        "returns": {
          "overflow": "The current overflow of funds for the project."
        }
      },
      "deploy(address,bytes32,string,(uint256,uint256,uint256,uint256,uint256,address),(uint256,uint256,uint256,bool,bool,address),(bool,uint16,uint48,address,address,uint56)[],(bool,uint16,uint48,address)[])": {
        "details": "Each operation withing this transaction can be done in sequence separately.Anyone can deploy a project on an owner's behalf._properties.target The amount that the project wants to receive in this funding cycle. Sent as a wad._properties.currency The currency of the `target`. Send 0 for ETH or 1 for USD._properties.duration The duration of the funding stage for which the `target` amount is needed. Measured in days. Send 0 for a boundless cycle reconfigurable at any time._properties.cycleLimit The number of cycles that this configuration should last for before going back to the last permanent. This has no effect for a project's first funding cycle._properties.discountRate A number from 0-200 indicating how valuable a contribution to this funding stage is compared to the project's previous funding stage. If it's 200, each funding stage will have equal weight. If the number is 180, a contribution to the next funding stage will only give you 90% of tickets given to a contribution of the same amount during the current funding stage. If the number is 0, an non-recurring funding stage will get made._properties.ballot The new ballot that will be used to approve subsequent reconfigurations._metadata.reservedRate A number from 0-200 indicating the percentage of each contribution's tickets that will be reserved for the project owner._metadata.bondingCurveRate The rate from 0-200 at which a project's Tickets can be redeemed for surplus. The bonding curve formula is https://www.desmos.com/calculator/sp9ru6zbpk where x is _count, o is _currentOverflow, s is _totalSupply, and r is _bondingCurveRate._metadata.reconfigurationBondingCurveRate The bonding curve rate to apply when there is an active ballot.",
        "params": {
          "_handle": "The project's unique handle.",
          "_metadata": "A struct specifying the TerminalV1 specific params _bondingCurveRate, and _reservedRate.",
          "_owner": "The address that will own the project.",
          "_payoutMods": "Any payout mods to set.",
          "_properties": "The funding cycle configuration.",
          "_ticketMods": "Any ticket mods to set.",
          "_uri": "A link to information about the project and this funding cycle."
        }
      },
      "migrate(uint256,address)": {
        "details": "Only a project's owner or a designated operator can migrate it.",
        "params": {
          "_projectId": "The ID of the project being migrated.",
          "_to": "The contract that will gain the project's funds."
        }
      },
      "owner()": {
        "details": "Returns the address of the current owner."
      },
      "pay(uint256,address,string,bool)": {
        "details": " Print's the project's tickets proportional to the amount of the contribution. The msg.value is the amount of the contribution in wei.",
        "params": {
          "_beneficiary": "The address to print Tickets for. ",
          "_memo": "A memo that will be included in the published event.",
          "_preferUnstakedTickets": "Whether ERC20's should be unstaked automatically if they have been issued.",
          "_projectId": "The ID of the project being contribute to."
        },
        "returns": {
          "_0": "The ID of the funding cycle that the payment was made during."
        }
      },
      "printReservedTickets(uint256)": {
        "params": {
          "_projectId": "The ID of the project to which the reserved tickets belong."
        },
        "returns": {
          "amount": "The amount of tickets that are being printed."
        }
      },
      "printTickets(uint256,uint256,address,string,bool)": {
        "details": "Only a project's owner or a designated operator can print tickets.",
        "params": {
          "_amount": "The amount of tickets to print.",
          "_beneficiary": "The address to send the printed tickets to.",
          "_memo": "A memo to leave with the printing.",
          "_preferUnstakedTickets": "If there is a preference to unstake the printed tickets.",
          "_projectId": "The ID of the project to print tickets for."
        }
      },
      "redeem(address,uint256,uint256,uint256,address,bool)": {
        "details": "Only a ticket's holder or a designated operator can redeem it.",
        "params": {
          "_account": "The account to redeem tickets for.",
          "_beneficiary": "The address to send the ETH to.",
          "_count": "The number of Tickets to redeem.",
          "_minReturnedWei": "The minimum amount of Wei expected in return.",
          "_preferUnstaked": "If the preference is to redeem tickets that have been converted to ERC-20s.",
          "_projectId": "The ID of the project to which the Tickets being redeemed belong."
        },
        "returns": {
          "amount": "The amount of ETH that the tickets were redeemed for."
        }
      },
      "renounceOwnership()": {
        "details": "Leaves the contract without owner. It will not be possible to call `onlyOwner` functions anymore. Can only be called by the current owner. NOTE: Renouncing ownership will leave the contract without an owner, thereby removing any functionality that is only available to the owner."
      },
      "reservedTicketBalanceOf(uint256,uint256)": {
        "params": {
          "_projectId": "The ID of the project to get overflow for.",
          "_reservedRate": "The reserved rate to use to make the calculation."
        },
        "returns": {
          "_0": "amount overflow The current overflow of funds for the project."
        }
      },
      "setFee(uint256)": {
        "details": "Only funding cycle reconfigurations after the new fee is set will use the new fee. All future funding cycles based on configurations made in the past will use the fee that was set at the time of the configuration.Only the owner can set a new fee.The max fee is 5%.",
        "params": {
          "_fee": "The new fee percent. Out of 200."
        }
      },
      "tap(uint256,uint256,uint256,uint256)": {
        "details": "Anyone can tap funds on a project's behalf.",
        "params": {
          "_amount": "The amount being tapped, in the funding cycle's currency.",
          "_currency": "The expected currency being tapped.",
          "_minReturnedWei": "The minimum number of wei that the amount should be valued at.",
          "_projectId": "The ID of the project to which the funding cycle being tapped belongs."
        },
        "returns": {
          "_0": "The ID of the funding cycle that was tapped."
        }
      },
      "transferOwnership(address)": {
        "details": "Transfers ownership of the contract to a new account (`newOwner`). Can only be called by the current owner."
      }
    },
    "version": 1
  },
  "userdoc": {
    "errors": {
      "PRBMath__MulDivFixedPointOverflow(uint256)": [
        {
          "notice": "Emitted when the result overflows uint256."
        }
      ],
      "PRBMath__MulDivOverflow(uint256,uint256)": [
        {
          "notice": "Emitted when the result overflows uint256."
        }
      ]
    },
    "kind": "user",
    "methods": {
      "addToBalance(uint256)": {
        "notice": " Receives and allocates funds belonging to the specified project."
      },
      "allowMigration(address)": {
        "notice": " Adds to the contract addresses that projects can migrate their Tickets to."
      },
      "balanceOf(uint256)": {
        "notice": "The amount of ETH that each project is responsible for."
      },
      "burnFromDeadAddress(uint256)": {
        "notice": "A function that burns the supply of the dead address for a project. "
      },
      "claimableOverflowOf(address,uint256,uint256)": {
        "notice": " The amount of tokens that can be claimed by the given address."
      },
      "configure(uint256,(uint256,uint256,uint256,uint256,uint256,address),(uint256,uint256,uint256,bool,bool,address),(bool,uint16,uint48,address,address,uint56)[],(bool,uint16,uint48,address)[])": {
        "notice": " Configures the properties of the current funding cycle if the project hasn't distributed tickets yet, or sets the properties of the proposed funding cycle that will take effect once the current one expires if it is approved by the current funding cycle's ballot."
      },
      "currentOverflowOf(uint256)": {
        "notice": " Gets the current overflowed amount for a specified project."
      },
      "deploy(address,bytes32,string,(uint256,uint256,uint256,uint256,uint256,address),(uint256,uint256,uint256,bool,bool,address),(bool,uint16,uint48,address,address,uint56)[],(bool,uint16,uint48,address)[])": {
        "notice": " Deploys a project. This will mint an ERC-721 into the `_owner`'s account, configure a first funding cycle, and set up any mods."
      },
      "fee()": {
        "notice": "The percent fee the Juicebox project takes from tapped amounts. Out of 200."
      },
      "fundingCycles()": {
        "notice": "The contract storing all funding cycle configurations."
      },
      "migrate(uint256,address)": {
        "notice": " Allows a project owner to migrate its funds and operations to a new contract."
      },
      "modStore()": {
        "notice": "The contract that stores mods for each project."
      },
      "operatorStore()": {
        "notice": "A contract storing operator assignments."
      },
      "pay(uint256,address,string,bool)": {
        "notice": " Contribute ETH to a project."
      },
      "prices()": {
        "notice": "The prices feeds."
      },
      "printReservedTickets(uint256)": {
        "notice": " Prints all reserved tickets for a project."
      },
      "printTickets(uint256,uint256,address,string,bool)": {
        "notice": " Allows a project to print tickets for a specified beneficiary."
      },
      "projects()": {
        "notice": "The Projects contract which mints ERC-721's that represent project ownership and transfers."
      },
      "redeem(address,uint256,uint256,uint256,address,bool)": {
        "notice": " Addresses can redeem their Tickets to claim the project's overflowed ETH."
      },
      "reservedTicketBalanceOf(uint256,uint256)": {
        "notice": " Gets the amount of reserved tickets that a project has."
      },
      "setFee(uint256)": {
        "notice": " Allow the admin to change the fee. "
      },
      "tap(uint256,uint256,uint256,uint256)": {
        "notice": " Tap into funds that have been contributed to a project's current funding cycle."
      },
      "terminalDirectory()": {
        "notice": "The directory of terminals."
      },
      "ticketBooth()": {
        "notice": "The contract that manages Ticket printing and redeeming."
      }
    },
    "notice": "             This contract manages the Juicebox ecosystem, serves as a payment terminal, and custodies all funds.",
    "version": 1
  },
  "storageLayout": {
    "storage": [
      {
        "astId": 160,
        "contract": "contracts/TerminalV1_1.sol:TerminalV1_1",
        "label": "_status",
        "offset": 0,
        "slot": "0",
        "type": "t_uint256"
      },
      {
        "astId": 53,
        "contract": "contracts/TerminalV1_1.sol:TerminalV1_1",
        "label": "_owner",
        "offset": 0,
        "slot": "1",
        "type": "t_address"
      },
      {
        "astId": 11344,
        "contract": "contracts/TerminalV1_1.sol:TerminalV1_1",
        "label": "_processedTicketTrackerOf",
        "offset": 0,
        "slot": "2",
        "type": "t_mapping(t_uint256,t_int256)"
      },
      {
        "astId": 11386,
        "contract": "contracts/TerminalV1_1.sol:TerminalV1_1",
        "label": "balanceOf",
        "offset": 0,
        "slot": "3",
        "type": "t_mapping(t_uint256,t_uint256)"
      },
      {
        "astId": 11391,
        "contract": "contracts/TerminalV1_1.sol:TerminalV1_1",
        "label": "fee",
        "offset": 0,
        "slot": "4",
        "type": "t_uint256"
      },
      {
        "astId": 11397,
        "contract": "contracts/TerminalV1_1.sol:TerminalV1_1",
        "label": "migrationIsAllowed",
        "offset": 0,
        "slot": "5",
        "type": "t_mapping(t_contract(ITerminal)16616,t_bool)"
      }
    ],
    "types": {
      "t_address": {
        "encoding": "inplace",
        "label": "address",
        "numberOfBytes": "20"
      },
      "t_bool": {
        "encoding": "inplace",
        "label": "bool",
        "numberOfBytes": "1"
      },
      "t_contract(ITerminal)16616": {
        "encoding": "inplace",
        "label": "contract ITerminal",
        "numberOfBytes": "20"
      },
      "t_int256": {
        "encoding": "inplace",
        "label": "int256",
        "numberOfBytes": "32"
      },
      "t_mapping(t_contract(ITerminal)16616,t_bool)": {
        "encoding": "mapping",
        "key": "t_contract(ITerminal)16616",
        "label": "mapping(contract ITerminal => bool)",
        "numberOfBytes": "32",
        "value": "t_bool"
      },
      "t_mapping(t_uint256,t_int256)": {
        "encoding": "mapping",
        "key": "t_uint256",
        "label": "mapping(uint256 => int256)",
        "numberOfBytes": "32",
        "value": "t_int256"
      },
      "t_mapping(t_uint256,t_uint256)": {
        "encoding": "mapping",
        "key": "t_uint256",
        "label": "mapping(uint256 => uint256)",
        "numberOfBytes": "32",
        "value": "t_uint256"
      },
      "t_uint256": {
        "encoding": "inplace",
        "label": "uint256",
        "numberOfBytes": "32"
      }
    }
  }
}